{
  "contractName": "Barr",
  "abi": [
    {
      "constant": true,
      "inputs": [
        {
          "name": "",
          "type": "address"
        }
      ],
      "name": "balances",
      "outputs": [
        {
          "name": "",
          "type": "uint256"
        }
      ],
      "payable": false,
      "stateMutability": "view",
      "type": "function"
    },
    {
      "inputs": [],
      "payable": true,
      "stateMutability": "payable",
      "type": "constructor"
    },
    {
      "payable": true,
      "stateMutability": "payable",
      "type": "fallback"
    },
    {
      "constant": false,
      "inputs": [],
      "name": "barr_put",
      "outputs": [],
      "payable": true,
      "stateMutability": "payable",
      "type": "function"
    },
    {
      "constant": false,
      "inputs": [],
      "name": "barr_get",
      "outputs": [],
      "payable": false,
      "stateMutability": "nonpayable",
      "type": "function"
    }
  ],
  "bytecode": "0x608060405261001b610020640100000000026401000000009004565b610065565b346000803373ffffffffffffffffffffffffffffffffffffffff1673ffffffffffffffffffffffffffffffffffffffff16815260200190815260200160002081905550565b6102d3806100746000396000f3fe608060405260043610610057576000357c0100000000000000000000000000000000000000000000000000000000900463ffffffff16806327e235e3146100595780633f003f6a146100be578063580d3d86146100d5575b005b34801561006557600080fd5b506100a86004803603602081101561007c57600080fd5b81019080803573ffffffffffffffffffffffffffffffffffffffff1690602001909291905050506100df565b6040518082815260200191505060405180910390f35b3480156100ca57600080fd5b506100d36100f7565b005b6100dd610262565b005b60006020528060005260406000206000915090505481565b600060603373ffffffffffffffffffffffffffffffffffffffff166000803373ffffffffffffffffffffffffffffffffffffffff1673ffffffffffffffffffffffffffffffffffffffff1681526020019081526020016000205460405180600001905060006040518083038185875af1925050503d8060008114610197576040519150601f19603f3d011682016040523d82523d6000602084013e61019c565b606091505b50809250819350505081151561021a576040517f08c379a00000000000000000000000000000000000000000000000000000000081526004018080602001828103825260118152602001807f7769746864726177616c206661696c656400000000000000000000000000000081525060200191505060405180910390fd5b60008060003373ffffffffffffffffffffffffffffffffffffffff1673ffffffffffffffffffffffffffffffffffffffff168152602001908152602001600020819055505050565b346000803373ffffffffffffffffffffffffffffffffffffffff1673ffffffffffffffffffffffffffffffffffffffff1681526020019081526020016000208190555056fea165627a7a72305820118679bb8a26a07c208299111f41c06752ad8c9f72d72d5d30f6c2d4ef359e6b0029",
  "source": "pragma solidity ^0.5.0;\r\n\r\ncontract Barr {\r\n  // maps addresses to a value and store it in a public variable \r\n  mapping (address => uint) public balances;\r\n\r\n  // constructor\r\n  constructor () payable public {\r\n    barr_put();\r\n  }\r\n\r\n  // msg is an information when you call function\r\n  function barr_put() payable public {\r\n    // where the storage of the ether value happens \r\n    balances[msg.sender] = msg.value; // msg.sender here is the address from the sender\r\n  }\r\n\r\n  function barr_get() public {\r\n    // let addresses to withdraw the value of ether\r\n    bool success;\r\n    bytes memory data;\r\n    (success, data) = msg.sender.call.value(balances[msg.sender])(\"\");\r\n\r\n    if (!success) \r\n    {\r\n        revert(\"withdrawal failed\");\r\n    }\r\n    \r\n    balances[msg.sender] = 0;\r\n  }\r\n\r\n  // fallback function\r\n  function() external payable {\r\n    // revert();\r\n  }\r\n}\r\n",
  "sourcePath": "D:/Projects/research/truffle/relay_dao/contracts/Barr.sol",
  "compiler": {
    "name": "solc",
    "version": "0.5.0+commit.1d4f565a.Emscripten.clang"
  },
  "schemaVersion": "3.0.6",
  "updatedAt": "2019-05-12T14:20:24.343Z",
  "devdoc": {
    "methods": {}
  },
  "userdoc": {
    "methods": {}
  }
}