{
  "contractName": "ProxyMulti",
  "abi": [
    {
      "inputs": [
        {
          "name": "_foo",
          "type": "address"
        },
        {
          "name": "_bar",
          "type": "address"
        }
      ],
      "payable": false,
      "stateMutability": "nonpayable",
      "type": "constructor"
    },
    {
      "payable": true,
      "stateMutability": "payable",
      "type": "fallback"
    },
    {
      "constant": false,
      "inputs": [
        {
          "name": "_address",
          "type": "address"
        },
        {
          "name": "_funcSigns",
          "type": "bytes4[]"
        }
      ],
      "name": "addContract",
      "outputs": [
        {
          "name": "",
          "type": "bool"
        }
      ],
      "payable": false,
      "stateMutability": "nonpayable",
      "type": "function"
    },
    {
      "constant": false,
      "inputs": [
        {
          "name": "_existing",
          "type": "address"
        },
        {
          "name": "_new",
          "type": "address"
        },
        {
          "name": "_funcSigns",
          "type": "bytes4[]"
        }
      ],
      "name": "updateContract",
      "outputs": [
        {
          "name": "",
          "type": "bool"
        }
      ],
      "payable": false,
      "stateMutability": "nonpayable",
      "type": "function"
    },
    {
      "constant": false,
      "inputs": [
        {
          "name": "_address",
          "type": "address"
        }
      ],
      "name": "addCtrtAddress",
      "outputs": [
        {
          "name": "result",
          "type": "bool"
        }
      ],
      "payable": false,
      "stateMutability": "nonpayable",
      "type": "function"
    },
    {
      "constant": true,
      "inputs": [],
      "name": "getCtrtAddresses",
      "outputs": [
        {
          "name": "_addresses",
          "type": "address[]"
        }
      ],
      "payable": false,
      "stateMutability": "view",
      "type": "function"
    },
    {
      "constant": false,
      "inputs": [
        {
          "name": "_existing",
          "type": "address"
        },
        {
          "name": "_new",
          "type": "address"
        }
      ],
      "name": "updateCtrtAddress",
      "outputs": [
        {
          "name": "result",
          "type": "bool"
        }
      ],
      "payable": false,
      "stateMutability": "nonpayable",
      "type": "function"
    },
    {
      "constant": false,
      "inputs": [
        {
          "name": "_address",
          "type": "address"
        }
      ],
      "name": "removeCtrtAddress",
      "outputs": [
        {
          "name": "result",
          "type": "bool"
        }
      ],
      "payable": false,
      "stateMutability": "nonpayable",
      "type": "function"
    },
    {
      "constant": true,
      "inputs": [
        {
          "name": "_address",
          "type": "address"
        }
      ],
      "name": "isExistingAddress",
      "outputs": [
        {
          "name": "result",
          "type": "bool"
        }
      ],
      "payable": false,
      "stateMutability": "view",
      "type": "function"
    },
    {
      "constant": true,
      "inputs": [
        {
          "name": "_address",
          "type": "address"
        }
      ],
      "name": "getFuncSigns",
      "outputs": [
        {
          "name": "",
          "type": "bytes4[]"
        }
      ],
      "payable": false,
      "stateMutability": "view",
      "type": "function"
    }
  ],
  "bytecode": "0x60806040523480156200001157600080fd5b50604051604080620015a2833981018060405260408110156200003357600080fd5b810190808051906020019092919080519060200190929190505050336000806101000a81548173ffffffffffffffffffffffffffffffffffffffff021916908373ffffffffffffffffffffffffffffffffffffffff160217905550620000a882620000cc640100000000026401000000009004565b50620000c381620000cc640100000000026401000000009004565b505050620003aa565b6000620000e88262000272640100000000026401000000009004565b15156200015d576040517f08c379a000000000000000000000000000000000000000000000000000000000815260040180806020018281038252601c8152602001807f61646472657373206d757374206e6f74206265206578697374696e670000000081525060200191505060405180910390fd5b600073ffffffffffffffffffffffffffffffffffffffff168273ffffffffffffffffffffffffffffffffffffffff161415151562000203576040517f08c379a000000000000000000000000000000000000000000000000000000000815260040180806020018281038252601c8152602001807f616464696e672061646472657373206d7573742062652076616c69640000000081525060200191505060405180910390fd5b60018290806001815401808255809150509060018203906000526020600020016000909192909190916101000a81548173ffffffffffffffffffffffffffffffffffffffff021916908373ffffffffffffffffffffffffffffffffffffffff1602179055505060019050919050565b600060606200028f6200031a640100000000026401000000009004565b905060008151141515620003145760008090505b815181101562000312578373ffffffffffffffffffffffffffffffffffffffff168282815181101515620002d357fe5b9060200190602002015173ffffffffffffffffffffffffffffffffffffffff16141562000304576001925062000312565b8080600101915050620002a3565b505b50919050565b60606001805480602002602001604051908101604052809291908181526020018280548015620003a057602002820191906000526020600020905b8160009054906101000a900473ffffffffffffffffffffffffffffffffffffffff1673ffffffffffffffffffffffffffffffffffffffff168152602001906001019080831162000355575b5050505050905090565b6111e880620003ba6000396000f3fe60806040526004361061008e576000357c0100000000000000000000000000000000000000000000000000000000900463ffffffff168063147e608d14610172578063184cbfed146101db5780632daa988814610281578063558aa86c1461037e5780638ad6b9a014610407578063976449ff14610470578063dc2ef17c1461058d578063fb373500146105f9575b600080600059366000823780519250508190506100aa81610662565b9250600073ffffffffffffffffffffffffffffffffffffffff168373ffffffffffffffffffffffffffffffffffffffff1614151515610151576040517f08c379a00000000000000000000000000000000000000000000000000000000081526004018080602001828103825260208152602001807f636f6e74726163742061646472657373206d757374206e6f742062652030783081525060200191505060405180910390fd5b596000803683875af43d59816000823e826000811461016e578282f35b8282fd5b34801561017e57600080fd5b506101c16004803603602081101561019557600080fd5b81019080803573ffffffffffffffffffffffffffffffffffffffff1690602001909291905050506107f1565b604051808215151515815260200191505060405180910390f35b3480156101e757600080fd5b5061022a600480360360208110156101fe57600080fd5b81019080803573ffffffffffffffffffffffffffffffffffffffff169060200190929190505050610984565b6040518080602001828103825283818151815260200191508051906020019060200280838360005b8381101561026d578082015181840152602081019050610252565b505050509050019250505060405180910390f35b34801561028d57600080fd5b50610364600480360360408110156102a457600080fd5b81019080803573ffffffffffffffffffffffffffffffffffffffff169060200190929190803590602001906401000000008111156102e157600080fd5b8201836020820111156102f357600080fd5b8035906020019184602083028401116401000000008311171561031557600080fd5b919080806020026020016040519081016040528093929190818152602001838360200280828437600081840152601f19601f820116905080830192505050505050509192919290505050610a79565b604051808215151515815260200191505060405180910390f35b34801561038a57600080fd5b506103ed600480360360408110156103a157600080fd5b81019080803573ffffffffffffffffffffffffffffffffffffffff169060200190929190803573ffffffffffffffffffffffffffffffffffffffff169060200190929190505050610a90565b604051808215151515815260200191505060405180910390f35b34801561041357600080fd5b506104566004803603602081101561042a57600080fd5b81019080803573ffffffffffffffffffffffffffffffffffffffff169060200190929190505050610cb0565b604051808215151515815260200191505060405180910390f35b34801561047c57600080fd5b506105736004803603606081101561049357600080fd5b81019080803573ffffffffffffffffffffffffffffffffffffffff169060200190929190803573ffffffffffffffffffffffffffffffffffffffff169060200190929190803590602001906401000000008111156104f057600080fd5b82018360208201111561050257600080fd5b8035906020019184602083028401116401000000008311171561052457600080fd5b919080806020026020016040519081016040528093929190818152602001838360200280828437600081840152601f19601f820116905080830192505050505050509192919290505050610eb3565b604051808215151515815260200191505060405180910390f35b34801561059957600080fd5b506105a2610ed6565b6040518080602001828103825283818151815260200191508051906020019060200280838360005b838110156105e55780820151818401526020810190506105ca565b505050509050019250505060405180910390f35b34801561060557600080fd5b506106486004803603602081101561061c57600080fd5b81019080803573ffffffffffffffffffffffffffffffffffffffff169060200190929190505050610f64565b604051808215151515815260200191505060405180910390f35b6000606061066e610ed6565b90506000815114151515610710576040517f08c379a00000000000000000000000000000000000000000000000000000000081526004018080602001828103825260268152602001807f72657175697265206172726179206f66206174206c65617374206f6e6520636f81526020017f6e7472616374000000000000000000000000000000000000000000000000000081525060400191505060405180910390fd5b60008090505b81518110156107ea576060610741838381518110151561073257fe5b90602001906020020151610984565b905060008090505b81518110156107db57818181518110151561076057fe5b906020019060200201517bffffffffffffffffffffffffffffffffffffffffffffffffffffffff1916867bffffffffffffffffffffffffffffffffffffffffffffffffffffffff191614156107ce5783838151811015156107bd57fe5b9060200190602002015194506107db565b8080600101915050610749565b50508080600101915050610716565b5050919050565b60006107fc82610f64565b1515610870576040517f08c379a000000000000000000000000000000000000000000000000000000000815260040180806020018281038252601c8152602001807f61646472657373206d757374206e6f74206265206578697374696e670000000081525060200191505060405180910390fd5b600073ffffffffffffffffffffffffffffffffffffffff168273ffffffffffffffffffffffffffffffffffffffff1614151515610915576040517f08c379a000000000000000000000000000000000000000000000000000000000815260040180806020018281038252601c8152602001807f616464696e672061646472657373206d7573742062652076616c69640000000081525060200191505060405180910390fd5b60018290806001815401808255809150509060018203906000526020600020016000909192909190916101000a81548173ffffffffffffffffffffffffffffffffffffffff021916908373ffffffffffffffffffffffffffffffffffffffff1602179055505060019050919050565b6060600260008373ffffffffffffffffffffffffffffffffffffffff1673ffffffffffffffffffffffffffffffffffffffff168152602001908152602001600020805480602002602001604051908101604052809291908181526020018280548015610a6d57602002820191906000526020600020906000905b82829054906101000a90047c0100000000000000000000000000000000000000000000000000000000027bffffffffffffffffffffffffffffffffffffffffffffffffffffffff1916815260200190600401906020826003010492830192600103820291508084116109fe5790505b50505050509050919050565b6000610a858383610ff5565b506001905092915050565b600060011515610a9f84610f64565b1515141515610b16576040517f08c379a000000000000000000000000000000000000000000000000000000000815260040180806020018281038252601f8152602001807f6578697374696e67206164647265737320646f6573206e6f742065786973740081525060200191505060405180910390fd5b600073ffffffffffffffffffffffffffffffffffffffff168273ffffffffffffffffffffffffffffffffffffffff1614151515610bbb576040517f08c379a00000000000000000000000000000000000000000000000000000000081526004018080602001828103825260198152602001807f6e65772061646472657373206d7573742062652076616c69640000000000000081525060200191505060405180910390fd5b60008090505b600180549050811015610ca957600181815481101515610bdd57fe5b9060005260206000200160009054906101000a900473ffffffffffffffffffffffffffffffffffffffff1673ffffffffffffffffffffffffffffffffffffffff168473ffffffffffffffffffffffffffffffffffffffff161415610c9c5782600182815481101515610c4b57fe5b9060005260206000200160006101000a81548173ffffffffffffffffffffffffffffffffffffffff021916908373ffffffffffffffffffffffffffffffffffffffff16021790555060019150610ca9565b8080600101915050610bc1565b5092915050565b600060011515610cbf83610f64565b1515141515610d36576040517f08c379a000000000000000000000000000000000000000000000000000000000815260040180806020018281038252601b8152602001807f72656d6f76696e672061646472657373206d757374206578697374000000000081525060200191505060405180910390fd5b60606000610d42610ed6565b915060008090505b8251811015610eaa578281815181101515610d6157fe5b9060200190602002015173ffffffffffffffffffffffffffffffffffffffff168573ffffffffffffffffffffffffffffffffffffffff161415610e9d5782610db360018461105590919063ffffffff16565b815181101515610dbf57fe5b90602001906020020151600182815481101515610dd857fe5b9060005260206000200160006101000a81548173ffffffffffffffffffffffffffffffffffffffff021916908373ffffffffffffffffffffffffffffffffffffffff1602179055506001610e3660018461105590919063ffffffff16565b815481101515610e4257fe5b9060005260206000200160006101000a81549073ffffffffffffffffffffffffffffffffffffffff0219169055610e8360018361105590919063ffffffff16565b600181610e90919061106e565b5060019350505050610eae565b8080600101915050610d4a565b5050505b919050565b6000610ebf8484610a90565b50610eca8383610ff5565b50600190509392505050565b60606001805480602002602001604051908101604052809291908181526020018280548015610f5a57602002820191906000526020600020905b8160009054906101000a900473ffffffffffffffffffffffffffffffffffffffff1673ffffffffffffffffffffffffffffffffffffffff1681526020019060010190808311610f10575b5050505050905090565b60006060610f70610ed6565b905060008151141515610fef5760008090505b8151811015610fed578373ffffffffffffffffffffffffffffffffffffffff168282815181101515610fb157fe5b9060200190602002015173ffffffffffffffffffffffffffffffffffffffff161415610fe05760019250610fed565b8080600101915050610f83565b505b50919050565b600081600260008573ffffffffffffffffffffffffffffffffffffffff1673ffffffffffffffffffffffffffffffffffffffff168152602001908152602001600020908051906020019061104a92919061109a565b506001905092915050565b600082821115151561106357fe5b818303905092915050565b815481835581811115611095578183600052602060002091820191016110949190611164565b5b505050565b828054828255906000526020600020906007016008900481019282156111535791602002820160005b8382111561112157835183826101000a81548163ffffffff02191690837c01000000000000000000000000000000000000000000000000000000009004021790555092602001926004016020816003010492830192600103026110c3565b80156111515782816101000a81549063ffffffff0219169055600401602081600301049283019260010302611121565b505b5090506111609190611189565b5090565b61118691905b8082111561118257600081600090555060010161116a565b5090565b90565b6111b991905b808211156111b557600081816101000a81549063ffffffff02191690555060010161118f565b5090565b9056fea165627a7a72305820b551a0aba1308ececa01c8352a9f6bb5d1eb9757a04b1d9fc6246128d8a31e4d0029",
  "source": "pragma solidity ^0.5.0;\r\n\r\nimport \"./SafeMath.sol\";\r\n/**\r\n * @title Proxy\r\n * @dev Gives the possibility to delegate any call to a foreign implementation.\r\n */\r\ncontract ProxyMulti {\r\n   using SafeMath for uint256;\r\n   //signature of calldata (function - the 4 first bytes)\r\n   address private owner;\r\n   address[] private ctrtAddresses;\r\n   mapping(address => bytes4[]) functionSignatures;\r\n\r\n   constructor(address _foo, address _bar) public {\r\n      owner = msg.sender;\r\n      addCtrtAddress(_foo);\r\n      addCtrtAddress(_bar);\r\n   }\r\n\r\n   function addContract(address _address, bytes4[] memory _funcSigns) public returns (bool) {\r\n      // require(addCtrtAddress(_address) == true, \"address must be added successfully\");\r\n      setFuncSigns(_address, _funcSigns);\r\n      return true;\r\n   }\r\n\r\n   function updateContract(address _existing, address _new, bytes4[] memory _funcSigns) public returns (bool) {\r\n      updateCtrtAddress(_existing, _new);\r\n      setFuncSigns(_new, _funcSigns);\r\n      return true;\r\n   }\r\n\r\n   function addCtrtAddress(address _address) public returns (bool result) {\r\n      require(isExistingAddress(_address), \"address must not be existing\");\r\n      require(_address != address(0), \"adding address must be valid\");\r\n      ctrtAddresses.push(_address);\r\n      result = true;\r\n   }\r\n\r\n   function getCtrtAddresses() public view returns (address[] memory _addresses) {\r\n      _addresses = ctrtAddresses;\r\n   }\r\n\r\n   function updateCtrtAddress(address _existing, address _new) public returns (bool result) {\r\n      // address[] memory _addresses = ctrtAddresses;\r\n      require(isExistingAddress(_existing) == true, \"existing address does not exist\"); \r\n      require(_new != address(0), \"new address must be valid\");\r\n      for (uint256 i = 0; i < ctrtAddresses.length; i++) {\r\n         if (_existing == ctrtAddresses[i]) {\r\n            ctrtAddresses[i] = _new;\r\n            result = true;\r\n            break;\r\n         }\r\n      }   \r\n   }\r\n\r\n   function removeCtrtAddress(address _address) public returns (bool result) {\r\n      require(isExistingAddress(_address) == true, \"removing address must exist\");\r\n      address[] memory _addresses;\r\n      uint256 arrayLength;\r\n      _addresses = getCtrtAddresses();\r\n      for (uint256 i = 0; i < _addresses.length; i++) {\r\n            if (_address == _addresses[i]) {\r\n                ctrtAddresses[i] = _addresses[arrayLength.sub(1)];\r\n                delete ctrtAddresses[arrayLength.sub(1)];\r\n                ctrtAddresses.length = arrayLength.sub(1);\r\n                return true;\r\n            }\r\n        }\r\n\r\n   } \r\n\r\n   function isExistingAddress(address _address) public view returns (bool result) {\r\n      address[] memory _addresses = getCtrtAddresses();\r\n      if (_addresses.length != 0) {\r\n         for (uint i = 0; i < _addresses.length; i++) {\r\n            if (_addresses[i] == _address) {\r\n               result = true;\r\n               break;\r\n            }\r\n         }\r\n      }\r\n   }\r\n\r\n   //function to update middleware contract address\r\n   function getFuncSigns(address _address) public view returns(bytes4[] memory) {\r\n      return functionSignatures[_address];\r\n   }\r\n \r\n   \r\n   //function to get \r\n   function setFuncSigns(address _address, bytes4[] memory _funcSigns) private returns(bool) {\r\n      //how to get all function signatures of all functions of the contract from abiString\r\n      //myContract.methods.myMethod([param1[, param2[, ...]]]).encodeABI()\r\n      functionSignatures[_address] = _funcSigns;\r\n      return true;\r\n   }\r\n\r\n   function callDestination(bytes4 _f_sig) private view returns (address _contract) {\r\n      //if sinature of function (4 bytes) of _calldata belongs to Erc20, then set the callAddress to erc20\r\n      address[] memory _addresses = getCtrtAddresses();\r\n      require(_addresses.length != 0, \"require array of at least one contract\");\r\n      for (uint i = 0; i < _addresses.length; i++) {\r\n         bytes4[] memory _f_sigs = getFuncSigns(_addresses[i]);\r\n         for (uint j = 0; j < _f_sigs.length; j++) {\r\n            if (_f_sig == _f_sigs[j]) {\r\n               _contract = _addresses[i];\r\n               break;\r\n            }\r\n         }\r\n      }\r\n   }\r\n\r\n   /**\r\n   * @dev Fallback function allowing to perform a delegatecall to the given implementation.\r\n   * This function will return whatever the implementation call returns\r\n   */\r\n   function () payable external {\r\n      //WHERE TO DECLARE MEMORY VARIABLE\r\n      address _currentAddress;\r\n      bytes32 _bytes32Buffer;\r\n      bytes4 f_sig;\r\n      //do not define or declare any memory variable outside this box.\r\n      assembly {\r\n         let ptr := msize   //copy to the next to the last item of memory, to assure no overide anything\r\n         calldatacopy(ptr, 0, calldatasize)  //copy to memory: \r\n         _bytes32Buffer := mload(ptr)\r\n      }\r\n      f_sig = bytes4(_bytes32Buffer);\r\n      _currentAddress = callDestination(f_sig);\r\n      require(_currentAddress != address(0), \"contract address must not be 0x0\");\r\n      assembly {\r\n         let ptr_call := msize\r\n         let result := delegatecall(gas, _currentAddress, ptr_call, calldatasize, 0, 0)\r\n         //get value in this address to see if we get it from mint call function\r\n\r\n         let size := returndatasize\r\n         let ptr_return := msize   //copy to the next to the last item of memory, to assure no overide anything\r\n         returndatacopy(ptr_return, 0, size)\r\n         switch result\r\n         case 0 { revert(ptr_return, size) }\r\n         default { return(ptr_return, size) }\r\n      }      \r\n   }\r\n}\r\n   ",
  "sourcePath": "D:/Projects/research/truffle/relay_dao/contracts/ProxyMulti.sol",
  "compiler": {
    "name": "solc",
    "version": "0.5.0+commit.1d4f565a.Emscripten.clang"
  },
  "schemaVersion": "3.0.6",
  "updatedAt": "2019-05-12T14:48:58.515Z",
  "devdoc": {
    "details": "Gives the possibility to delegate any call to a foreign implementation.\r",
    "methods": {},
    "title": "Proxy\r"
  },
  "userdoc": {
    "methods": {}
  }
}