{
  "contractName": "HoneyPot",
  "abi": [
    {
      "constant": true,
      "inputs": [
        {
          "name": "",
          "type": "address"
        }
      ],
      "name": "balances",
      "outputs": [
        {
          "name": "",
          "type": "uint256"
        }
      ],
      "payable": false,
      "stateMutability": "view",
      "type": "function"
    },
    {
      "inputs": [],
      "payable": true,
      "stateMutability": "payable",
      "type": "constructor"
    },
    {
      "payable": true,
      "stateMutability": "payable",
      "type": "fallback"
    },
    {
      "constant": false,
      "inputs": [],
      "name": "put",
      "outputs": [],
      "payable": true,
      "stateMutability": "payable",
      "type": "function"
    },
    {
      "constant": false,
      "inputs": [],
      "name": "get",
      "outputs": [],
      "payable": false,
      "stateMutability": "nonpayable",
      "type": "function"
    }
  ],
  "bytecode": "0x608060405261001b610020640100000000026401000000009004565b610065565b346000803373ffffffffffffffffffffffffffffffffffffffff1673ffffffffffffffffffffffffffffffffffffffff16815260200190815260200160002081905550565b6102d6806100746000396000f3fe608060405260043610610057576000357c0100000000000000000000000000000000000000000000000000000000900463ffffffff16806327e235e31461005c578063549262ba146100c15780636d4ce63c146100cb575b600080fd5b34801561006857600080fd5b506100ab6004803603602081101561007f57600080fd5b81019080803573ffffffffffffffffffffffffffffffffffffffff1690602001909291905050506100e2565b6040518082815260200191505060405180910390f35b6100c96100fa565b005b3480156100d757600080fd5b506100e061013f565b005b60006020528060005260406000206000915090505481565b346000803373ffffffffffffffffffffffffffffffffffffffff1673ffffffffffffffffffffffffffffffffffffffff16815260200190815260200160002081905550565b600060603373ffffffffffffffffffffffffffffffffffffffff166000803373ffffffffffffffffffffffffffffffffffffffff1673ffffffffffffffffffffffffffffffffffffffff1681526020019081526020016000205460405180600001905060006040518083038185875af1925050503d80600081146101df576040519150601f19603f3d011682016040523d82523d6000602084013e6101e4565b606091505b508092508193505050811515610262576040517f08c379a00000000000000000000000000000000000000000000000000000000081526004018080602001828103825260188152602001807f7769746864726177616c20457468657273206661696c6564000000000000000081525060200191505060405180910390fd5b60008060003373ffffffffffffffffffffffffffffffffffffffff1673ffffffffffffffffffffffffffffffffffffffff16815260200190815260200160002081905550505056fea165627a7a72305820862f61b04f52270932eb9b6617087942f38123196d93904234e5924e05ebe1400029",
  "source": "pragma solidity ^0.5.0;\n\ncontract HoneyPot {\n  // maps addresses to a value and store it in a public variable \n  mapping (address => uint) public balances;\n\n  // constructor\n  constructor () payable public {\n    put();\n  }\n\n  // msg is an information when you call function\n  function put() payable public {\n    // where the storage of the ether value happens \n    balances[msg.sender] = msg.value; // msg.sender here is the address from the sender\n  }\n\n  function get() public {\n    // let addresses to withdraw the value of ether\n    bool _result;\n    bytes memory _data;\n    (_result, _data) = msg.sender.call.value(balances[msg.sender])(\"\");\n    if (!_result) {\n        revert(\"withdrawal Ethers failed\");\n    }    \n    balances[msg.sender] = 0;\n  }\n\n  // fallback function\n  function() external payable {\n    revert();\n  }\n}\n",
  "sourcePath": "/Users/vancuongbui/projects/blockchain/dao-attacks/reentrancy-acttack/contracts/HoneyPot.sol",
  "compiler": {
    "name": "solc",
    "version": "0.5.0+commit.1d4f565a.Emscripten.clang"
  },
  "schemaVersion": "3.0.9",
  "updatedAt": "2019-05-17T09:58:49.720Z",
  "devdoc": {
    "methods": {}
  },
  "userdoc": {
    "methods": {}
  }
}