{
  "contractName": "UpgradabilityProxy",
  "abi": [
    {
      "constant": true,
      "inputs": [],
      "name": "getMsize",
      "outputs": [
        {
          "name": "",
          "type": "uint256"
        }
      ],
      "payable": false,
      "stateMutability": "view",
      "type": "function"
    },
    {
      "constant": true,
      "inputs": [],
      "name": "getMemoryAt0x80",
      "outputs": [
        {
          "name": "",
          "type": "bytes32"
        }
      ],
      "payable": false,
      "stateMutability": "view",
      "type": "function"
    },
    {
      "constant": true,
      "inputs": [],
      "name": "getMemoryAt0x40",
      "outputs": [
        {
          "name": "",
          "type": "uint256"
        }
      ],
      "payable": false,
      "stateMutability": "view",
      "type": "function"
    },
    {
      "constant": true,
      "inputs": [],
      "name": "getMemoryAt0x80After",
      "outputs": [
        {
          "name": "",
          "type": "bytes32"
        }
      ],
      "payable": false,
      "stateMutability": "view",
      "type": "function"
    },
    {
      "constant": true,
      "inputs": [],
      "name": "getMemoryAt0x60",
      "outputs": [
        {
          "name": "",
          "type": "uint256"
        }
      ],
      "payable": false,
      "stateMutability": "view",
      "type": "function"
    },
    {
      "inputs": [
        {
          "name": "_proxyLogicAddress",
          "type": "address"
        }
      ],
      "payable": false,
      "stateMutability": "nonpayable",
      "type": "constructor"
    },
    {
      "payable": true,
      "stateMutability": "payable",
      "type": "fallback"
    },
    {
      "anonymous": false,
      "inputs": [
        {
          "indexed": true,
          "name": "implementation",
          "type": "address"
        }
      ],
      "name": "Upgraded",
      "type": "event"
    },
    {
      "constant": true,
      "inputs": [],
      "name": "getContractdAddress",
      "outputs": [
        {
          "name": "_currentDeployedAddress",
          "type": "address"
        }
      ],
      "payable": false,
      "stateMutability": "view",
      "type": "function"
    },
    {
      "constant": false,
      "inputs": [
        {
          "name": "newPosition",
          "type": "address"
        }
      ],
      "name": "_upgradeTo",
      "outputs": [],
      "payable": false,
      "stateMutability": "nonpayable",
      "type": "function"
    }
  ],
  "bytecode": "0x608060405234801561001057600080fd5b506040516020806105298339810180604052602081101561003057600080fd5b81019080805190602001909291905050506100598161005f640100000000026401000000009004565b506100c6565b600060405180807f4a757374206120636f6e7374616e7420737472696e6720746f2072657475726e81526020017f206120636f6e7374616e742073746f7261676520706f736974696f6e00000000815250603c019050604051809103902090508181555050565b610454806100d56000396000f3fe608060405260043610610083576000357c0100000000000000000000000000000000000000000000000000000000900463ffffffff1680631567213b14610111578063315ce8171461013c578063341407481461016757806375fdc308146101b8578063cbd6689a146101e3578063ed25f10c1461020e578063f934c3b414610239575b600061008d610290565b9050600073ffffffffffffffffffffffffffffffffffffffff168173ffffffffffffffffffffffffffffffffffffffff16141515156100cb57600080fd5b6040516000556060516001556080516002556040513660008237596004556080516003556000803683855af43d604051816000823e826000811461010d578282f35b8282fd5b34801561011d57600080fd5b506101266102f9565b6040518082815260200191505060405180910390f35b34801561014857600080fd5b50610151610303565b6040518082815260200191505060405180910390f35b34801561017357600080fd5b506101b66004803603602081101561018a57600080fd5b81019080803573ffffffffffffffffffffffffffffffffffffffff16906020019092919050505061030d565b005b3480156101c457600080fd5b506101cd6103a4565b6040518082815260200191505060405180910390f35b3480156101ef57600080fd5b506101f86103ad565b6040518082815260200191505060405180910390f35b34801561021a57600080fd5b506102236103b7565b6040518082815260200191505060405180910390f35b34801561024557600080fd5b5061024e610290565b604051808273ffffffffffffffffffffffffffffffffffffffff1673ffffffffffffffffffffffffffffffffffffffff16815260200191505060405180910390f35b60008060405180807f4a757374206120636f6e7374616e7420737472696e6720746f2072657475726e81526020017f206120636f6e7374616e742073746f7261676520706f736974696f6e00000000815250603c01905060405180910390209050805491505090565b6000600454905090565b6000600254905090565b6000610317610290565b90508173ffffffffffffffffffffffffffffffffffffffff168173ffffffffffffffffffffffffffffffffffffffff161415151561035457600080fd5b61035d826103c1565b8173ffffffffffffffffffffffffffffffffffffffff167fbc7cd75a20ee27fd9adebab32041f755214dbc6bffa90cc0225b39da2e5c2d3b60405160405180910390a25050565b60008054905090565b6000600354905090565b6000600154905090565b600060405180807f4a757374206120636f6e7374616e7420737472696e6720746f2072657475726e81526020017f206120636f6e7374616e742073746f7261676520706f736974696f6e00000000815250603c01905060405180910390209050818155505056fea165627a7a72305820c8088781a689d161efab15d40b3e2c1a4053d09911073052c3c624e4946a15040029",
  "source": "pragma solidity ^0.5.0;\n\nimport './Proxy.sol';\n\n/**\n * @title UpgradeabilityProxy\n * @dev This contract represents a proxy where the implementation address to which it will delegate can be upgraded\n */\ncontract UpgradabilityProxy is Proxy {\n  /**\n   * @dev This event will be emitted every time the implementation gets upgraded\n   * @param implementation representing the address of the upgraded implementation\n   */\n  event Upgraded(address indexed implementation);\n\n  // Storage position which store the address of the current logic contract\n  bytes32 private constant storagePositionOfContract = keccak256(\"Just a constant string to return a constant storage position\");\n\n  /**\n   * @dev Constructor function\n   */\n  constructor(address _proxyLogicAddress) public {\n    _setContractAddress(_proxyLogicAddress);\n  }\n\n  /** GET ADDRESS OF THE CURRENT IMPLEMENTATION\n   * @dev Tells the address of the current implementation\n   * @return address of the current implementation\n   */\n  function getContractdAddress() public view returns (address _currentDeployedAddress) {\n    bytes32 position = storagePositionOfContract;\n    assembly {\n      _currentDeployedAddress := sload(position)\n    }\n  }\n\n  /**\n   * @dev Sets the address of the current implementation\n   * @param _newContractAddress address representing the new implementation to be set\n   */\n  function _setContractAddress(address _newContractAddress) internal {\n    bytes32 position = storagePositionOfContract;\n    assembly {\n      sstore(position, _newContractAddress)\n    }\n  }\n\n  /**\n   * @dev Upgrades the implementation address\n   * @param newPosition representing the address of the new implementation to be set\n   */\n  function _upgradeTo(address newPosition) public {\n    address currentImplementation = getContractdAddress();\n    require(currentImplementation != newPosition);\n    _setContractAddress(newPosition);\n    emit Upgraded(newPosition);\n  }\n\n  //KEEP IN MIND THERE IS FALLBACK FUNCTION INHERIT FROM PROXY CONTRACT\n}\n",
  "sourcePath": "D:/Projects/research/truffle/proxy_test_memory/contracts/UpgradabilityProxy.sol",
  "compiler": {
    "name": "solc",
    "version": "0.5.0+commit.1d4f565a.Emscripten.clang"
  },
  "schemaVersion": "3.0.6",
  "updatedAt": "2019-05-18T05:14:29.583Z",
  "devdoc": {
    "details": "This contract represents a proxy where the implementation address to which it will delegate can be upgraded",
    "methods": {
      "_upgradeTo(address)": {
        "details": "Upgrades the implementation address",
        "params": {
          "newPosition": "representing the address of the new implementation to be set"
        }
      },
      "constructor": {
        "details": "Constructor function"
      },
      "getContractdAddress()": {
        "details": "Tells the address of the current implementation",
        "return": "address of the current implementation"
      }
    },
    "title": "UpgradeabilityProxy"
  },
  "userdoc": {
    "methods": {
      "getContractdAddress()": {
        "notice": "GET ADDRESS OF THE CURRENT IMPLEMENTATION"
      }
    }
  }
}