{
  "contractName": "HoneyPot",
  "abi": [
    {
      "constant": true,
      "inputs": [
        {
          "name": "",
          "type": "address"
        }
      ],
      "name": "balances",
      "outputs": [
        {
          "name": "",
          "type": "uint256"
        }
      ],
      "payable": false,
      "stateMutability": "view",
      "type": "function"
    },
    {
      "inputs": [],
      "payable": true,
      "stateMutability": "payable",
      "type": "constructor"
    },
    {
      "payable": true,
      "stateMutability": "payable",
      "type": "fallback"
    },
    {
      "constant": true,
      "inputs": [
        {
          "name": "_address",
          "type": "address"
        }
      ],
      "name": "getBalanceOf",
      "outputs": [
        {
          "name": "",
          "type": "uint256"
        }
      ],
      "payable": false,
      "stateMutability": "view",
      "type": "function"
    },
    {
      "constant": false,
      "inputs": [],
      "name": "put",
      "outputs": [],
      "payable": true,
      "stateMutability": "payable",
      "type": "function"
    },
    {
      "constant": false,
      "inputs": [
        {
          "name": "_value",
          "type": "uint256"
        }
      ],
      "name": "get",
      "outputs": [],
      "payable": false,
      "stateMutability": "nonpayable",
      "type": "function"
    },
    {
      "constant": false,
      "inputs": [
        {
          "name": "_to",
          "type": "address"
        },
        {
          "name": "_value",
          "type": "uint256"
        }
      ],
      "name": "_transfer",
      "outputs": [],
      "payable": false,
      "stateMutability": "nonpayable",
      "type": "function"
    }
  ],
  "bytecode": "0x608060405261001b610020640100000000026401000000009004565b610065565b346000803373ffffffffffffffffffffffffffffffffffffffff1673ffffffffffffffffffffffffffffffffffffffff16815260200190815260200160002081905550565b610556806100746000396000f3fe60806040526004361061006d576000357c0100000000000000000000000000000000000000000000000000000000900463ffffffff16806327e235e3146100725780634847a79c146100d7578063549262ba146101325780639507d39a1461013c5780639b96eece14610177575b600080fd5b34801561007e57600080fd5b506100c16004803603602081101561009557600080fd5b81019080803573ffffffffffffffffffffffffffffffffffffffff1690602001909291905050506101dc565b6040518082815260200191505060405180910390f35b3480156100e357600080fd5b50610130600480360360408110156100fa57600080fd5b81019080803573ffffffffffffffffffffffffffffffffffffffff169060200190929190803590602001909291905050506101f4565b005b61013a61028b565b005b34801561014857600080fd5b506101756004803603602081101561015f57600080fd5b81019080803590602001909291905050506102d0565b005b34801561018357600080fd5b506101c66004803603602081101561019a57600080fd5b81019080803573ffffffffffffffffffffffffffffffffffffffff1690602001909291905050506104e2565b6040518082815260200191505060405180910390f35b60006020528060005260406000206000915090505481565b8173ffffffffffffffffffffffffffffffffffffffff166108fc829081150290604051600060405180830381858888f1935050505015801561023a573d6000803e3d6000fd5b50806000803373ffffffffffffffffffffffffffffffffffffffff1673ffffffffffffffffffffffffffffffffffffffff168152602001908152602001600020600082825403925050819055505050565b346000803373ffffffffffffffffffffffffffffffffffffffff1673ffffffffffffffffffffffffffffffffffffffff16815260200190815260200160002081905550565b806000803373ffffffffffffffffffffffffffffffffffffffff1673ffffffffffffffffffffffffffffffffffffffff16815260200190815260200160002054101515156103ac576040517f08c379a00000000000000000000000000000000000000000000000000000000081526004018080602001828103825260238152602001807f67657420726571756972652076616c7565206c657373207468616e2062616c6181526020017f6e6365000000000000000000000000000000000000000000000000000000000081525060400191505060405180910390fd5b806000803373ffffffffffffffffffffffffffffffffffffffff1673ffffffffffffffffffffffffffffffffffffffff16815260200190815260200160002060008282540192505081905550600060603373ffffffffffffffffffffffffffffffffffffffff168360405180600001905060006040518083038185875af1925050503d806000811461045a576040519150601f19603f3d011682016040523d82523d6000602084013e61045f565b606091505b5080925081935050508115156104dd576040517f08c379a00000000000000000000000000000000000000000000000000000000081526004018080602001828103825260188152602001807f7769746864726177616c20457468657273206661696c6564000000000000000081525060200191505060405180910390fd5b505050565b60008060008373ffffffffffffffffffffffffffffffffffffffff1673ffffffffffffffffffffffffffffffffffffffff16815260200190815260200160002054905091905056fea165627a7a72305820767955bc186df5bb37ede40d8b6852e2448e8fbfefc866f1621e6019134595220029",
  "source": "pragma solidity ^0.5.0;\r\n\r\ncontract HoneyPot {\r\n  // maps addresses to a value and store it in a public variable \r\n  mapping (address => uint) public balances;\r\n\r\n  // constructor\r\n  constructor () payable public {\r\n    put();\r\n  }\r\n\r\n  function getBalanceOf(address _address) public view returns (uint) {\r\n    return balances[_address];\r\n  }\r\n\r\n  // msg is an information when you call function\r\n  function put() payable public {\r\n    // where the storage of the ether value happens \r\n    balances[msg.sender] = msg.value; // msg.sender here is the address from the sender\r\n  }\r\n\r\n  function get(uint _value) public {\r\n    require(balances[msg.sender] >= _value, \"get require value less than balance\");\r\n    balances[msg.sender] += _value;\r\n    // let addresses to withdraw the value of ether\r\n    bool _result;\r\n    bytes memory _data;\r\n    (_result, _data) = msg.sender.call.value(_value)(\"\");\r\n    if (!_result) {\r\n        revert(\"withdrawal Ethers failed\");\r\n    }    \r\n  }\r\n\r\n  function _transfer(address payable _to, uint _value) public {\r\n    // let addresses to withdraw the value of ether\r\n    _to.transfer(_value);\r\n    balances[msg.sender] -= _value;\r\n  }\r\n\r\n  // fallback function\r\n  function() external payable {\r\n    revert();\r\n  }\r\n}\r\n",
  "sourcePath": "D:\\Projects\\research\\truffle\\cross-function-dao\\contracts\\HoneyPot.sol",
  "compiler": {
    "name": "solc",
    "version": "0.5.0+commit.1d4f565a.Emscripten.clang"
  },
  "schemaVersion": "3.0.6",
  "updatedAt": "2019-05-15T23:06:03.825Z",
  "devdoc": {
    "methods": {}
  },
  "userdoc": {
    "methods": {}
  }
}