{
  "contractName": "Barr",
  "abi": [
    {
      "constant": true,
      "inputs": [
        {
          "name": "",
          "type": "address"
        }
      ],
      "name": "balanceOf",
      "outputs": [
        {
          "name": "",
          "type": "uint256"
        }
      ],
      "payable": false,
      "stateMutability": "view",
      "type": "function"
    },
    {
      "inputs": [],
      "payable": true,
      "stateMutability": "payable",
      "type": "constructor"
    },
    {
      "payable": true,
      "stateMutability": "payable",
      "type": "fallback"
    },
    {
      "constant": false,
      "inputs": [],
      "name": "barr_put",
      "outputs": [],
      "payable": true,
      "stateMutability": "payable",
      "type": "function"
    },
    {
      "constant": false,
      "inputs": [],
      "name": "barr_get",
      "outputs": [],
      "payable": false,
      "stateMutability": "nonpayable",
      "type": "function"
    }
  ],
  "bytecode": "0x608060405261001b610020640100000000026401000000009004565b610065565b346000803373ffffffffffffffffffffffffffffffffffffffff1673ffffffffffffffffffffffffffffffffffffffff16815260200190815260200160002081905550565b6102d3806100746000396000f3fe608060405260043610610057576000357c0100000000000000000000000000000000000000000000000000000000900463ffffffff1680633f003f6a14610059578063580d3d861461007057806370a082311461007a575b005b34801561006557600080fd5b5061006e6100df565b005b61007861024a565b005b34801561008657600080fd5b506100c96004803603602081101561009d57600080fd5b81019080803573ffffffffffffffffffffffffffffffffffffffff16906020019092919050505061028f565b6040518082815260200191505060405180910390f35b600060603373ffffffffffffffffffffffffffffffffffffffff166000803373ffffffffffffffffffffffffffffffffffffffff1673ffffffffffffffffffffffffffffffffffffffff1681526020019081526020016000205460405180600001905060006040518083038185875af1925050503d806000811461017f576040519150601f19603f3d011682016040523d82523d6000602084013e610184565b606091505b508092508193505050811515610202576040517f08c379a00000000000000000000000000000000000000000000000000000000081526004018080602001828103825260118152602001807f7769746864726177616c206661696c656400000000000000000000000000000081525060200191505060405180910390fd5b60008060003373ffffffffffffffffffffffffffffffffffffffff1673ffffffffffffffffffffffffffffffffffffffff168152602001908152602001600020819055505050565b346000803373ffffffffffffffffffffffffffffffffffffffff1673ffffffffffffffffffffffffffffffffffffffff16815260200190815260200160002081905550565b6000602052806000526040600020600091509050548156fea165627a7a723058203ea11c515e220446f38daeed593821d1356fc76f7aeee58f147e222b2f805ae40029",
  "source": "pragma solidity ^0.5.0;\r\n\r\ncontract Barr {\r\n  // maps addresses to a value and store it in a public variable \r\n  mapping (address => uint) public balanceOf;\r\n\r\n  // constructor\r\n  constructor () payable public {\r\n    barr_put();\r\n  }\r\n\r\n  // msg is an information when you call function\r\n  function barr_put() payable public {\r\n    // where the storage of the ether value happens \r\n    balanceOf[msg.sender] = msg.value; // msg.sender here is the address from the sender\r\n  }\r\n\r\n  function barr_get() public {\r\n    // let addresses to withdraw the value of ether\r\n    bool success;\r\n    bytes memory data;\r\n    (success, data) = msg.sender.call.value(balanceOf[msg.sender])(\"\");\r\n\r\n    if (!success) \r\n    {\r\n        revert(\"withdrawal failed\");\r\n    }\r\n    \r\n    balanceOf[msg.sender] = 0;\r\n  }\r\n\r\n  // fallback function\r\n  function() external payable {\r\n    // revert();\r\n  }\r\n}\r\n",
  "sourcePath": "D:/Projects/research/truffle/relay_dao_avoid/contracts/Barr.sol",
  "compiler": {
    "name": "solc",
    "version": "0.5.0+commit.1d4f565a.Emscripten.clang"
  },
  "schemaVersion": "3.0.6",
  "updatedAt": "2019-05-13T01:18:20.238Z",
  "devdoc": {
    "methods": {}
  },
  "userdoc": {
    "methods": {}
  }
}