{
  "contractName": "Fool",
  "abi": [
    {
      "constant": true,
      "inputs": [
        {
          "name": "",
          "type": "address"
        }
      ],
      "name": "balances",
      "outputs": [
        {
          "name": "",
          "type": "uint256"
        }
      ],
      "payable": false,
      "stateMutability": "view",
      "type": "function"
    },
    {
      "inputs": [],
      "payable": true,
      "stateMutability": "payable",
      "type": "constructor"
    },
    {
      "payable": true,
      "stateMutability": "payable",
      "type": "fallback"
    },
    {
      "constant": false,
      "inputs": [],
      "name": "fool_put",
      "outputs": [],
      "payable": true,
      "stateMutability": "payable",
      "type": "function"
    },
    {
      "constant": false,
      "inputs": [],
      "name": "fool_get",
      "outputs": [],
      "payable": false,
      "stateMutability": "nonpayable",
      "type": "function"
    }
  ],
  "bytecode": "0x608060405261001b610020640100000000026401000000009004565b610065565b346000803373ffffffffffffffffffffffffffffffffffffffff1673ffffffffffffffffffffffffffffffffffffffff16815260200190815260200160002081905550565b6102d3806100746000396000f3fe608060405260043610610057576000357c0100000000000000000000000000000000000000000000000000000000900463ffffffff168063171f63401461005957806327e235e3146100635780638a55aa2a146100c8575b005b6100616100df565b005b34801561006f57600080fd5b506100b26004803603602081101561008657600080fd5b81019080803573ffffffffffffffffffffffffffffffffffffffff169060200190929190505050610124565b6040518082815260200191505060405180910390f35b3480156100d457600080fd5b506100dd61013c565b005b346000803373ffffffffffffffffffffffffffffffffffffffff1673ffffffffffffffffffffffffffffffffffffffff16815260200190815260200160002081905550565b60006020528060005260406000206000915090505481565b600060603373ffffffffffffffffffffffffffffffffffffffff166000803373ffffffffffffffffffffffffffffffffffffffff1673ffffffffffffffffffffffffffffffffffffffff1681526020019081526020016000205460405180600001905060006040518083038185875af1925050503d80600081146101dc576040519150601f19603f3d011682016040523d82523d6000602084013e6101e1565b606091505b50809250819350505081151561025f576040517f08c379a00000000000000000000000000000000000000000000000000000000081526004018080602001828103825260118152602001807f7769746864726177616c206661696c656400000000000000000000000000000081525060200191505060405180910390fd5b60008060003373ffffffffffffffffffffffffffffffffffffffff1673ffffffffffffffffffffffffffffffffffffffff16815260200190815260200160002081905550505056fea165627a7a72305820b2bd63c1870c00264237c4285d78ebda711776a5bdcb9cfe85b8850734bc35360029",
  "source": "pragma solidity ^0.5.0;\r\n\r\ncontract Fool {\r\n  // maps addresses to a value and store it in a public variable \r\n  mapping (address => uint) public balances;\r\n\r\n  // constructor\r\n  constructor () payable public {\r\n    fool_put();\r\n  }\r\n\r\n  // msg is an information when you call function\r\n  function fool_put() payable public {\r\n    // where the storage of the ether value happens \r\n    balances[msg.sender] = msg.value; // msg.sender here is the address from the sender\r\n  }\r\n\r\n  function fool_get() public {\r\n    // let addresses to withdraw the value of ether\r\n    bool success;\r\n    bytes memory data;\r\n    (success, data) = msg.sender.call.value(balances[msg.sender])(\"\");\r\n\r\n    if (!success) \r\n    {\r\n        revert(\"withdrawal failed\");\r\n    }\r\n    \r\n    balances[msg.sender] = 0;\r\n  }\r\n\r\n  // fallback function\r\n  function() external payable {\r\n    // revert();\r\n  }\r\n}\r\n",
  "sourcePath": "D:\\Projects\\research\\truffle\\relay_dao_avoid\\contracts\\Fool.sol",
  "compiler": {
    "name": "solc",
    "version": "0.5.0+commit.1d4f565a.Emscripten.clang"
  },
  "schemaVersion": "3.0.6",
  "updatedAt": "2019-05-13T01:19:33.964Z",
  "devdoc": {
    "methods": {}
  },
  "userdoc": {
    "methods": {}
  }
}