{
  "contractName": "ProxyMulti",
  "abi": [
    {
      "inputs": [
        {
          "name": "_foo",
          "type": "address"
        },
        {
          "name": "_bar",
          "type": "address"
        }
      ],
      "payable": false,
      "stateMutability": "nonpayable",
      "type": "constructor"
    },
    {
      "payable": true,
      "stateMutability": "payable",
      "type": "fallback"
    },
    {
      "constant": false,
      "inputs": [
        {
          "name": "_dataAddr",
          "type": "address"
        }
      ],
      "name": "setDataCtrtAddress",
      "outputs": [
        {
          "name": "_result",
          "type": "bool"
        }
      ],
      "payable": false,
      "stateMutability": "nonpayable",
      "type": "function"
    },
    {
      "constant": true,
      "inputs": [],
      "name": "getDataCtrtAddress",
      "outputs": [
        {
          "name": "_result",
          "type": "address"
        }
      ],
      "payable": false,
      "stateMutability": "view",
      "type": "function"
    },
    {
      "constant": false,
      "inputs": [
        {
          "name": "_address",
          "type": "address"
        },
        {
          "name": "_funcSigns",
          "type": "bytes4[]"
        }
      ],
      "name": "addContract",
      "outputs": [
        {
          "name": "",
          "type": "bool"
        }
      ],
      "payable": false,
      "stateMutability": "nonpayable",
      "type": "function"
    },
    {
      "constant": false,
      "inputs": [
        {
          "name": "_existing",
          "type": "address"
        },
        {
          "name": "_new",
          "type": "address"
        },
        {
          "name": "_funcSigns",
          "type": "bytes4[]"
        }
      ],
      "name": "updateContract",
      "outputs": [
        {
          "name": "",
          "type": "bool"
        }
      ],
      "payable": false,
      "stateMutability": "nonpayable",
      "type": "function"
    },
    {
      "constant": false,
      "inputs": [
        {
          "name": "_address",
          "type": "address"
        }
      ],
      "name": "addCtrtAddress",
      "outputs": [
        {
          "name": "result",
          "type": "bool"
        }
      ],
      "payable": false,
      "stateMutability": "nonpayable",
      "type": "function"
    },
    {
      "constant": true,
      "inputs": [],
      "name": "getCtrtAddresses",
      "outputs": [
        {
          "name": "_addresses",
          "type": "address[]"
        }
      ],
      "payable": false,
      "stateMutability": "view",
      "type": "function"
    },
    {
      "constant": false,
      "inputs": [
        {
          "name": "_existing",
          "type": "address"
        },
        {
          "name": "_new",
          "type": "address"
        }
      ],
      "name": "updateCtrtAddress",
      "outputs": [
        {
          "name": "result",
          "type": "bool"
        }
      ],
      "payable": false,
      "stateMutability": "nonpayable",
      "type": "function"
    },
    {
      "constant": false,
      "inputs": [
        {
          "name": "_address",
          "type": "address"
        }
      ],
      "name": "removeCtrtAddress",
      "outputs": [
        {
          "name": "result",
          "type": "bool"
        }
      ],
      "payable": false,
      "stateMutability": "nonpayable",
      "type": "function"
    },
    {
      "constant": true,
      "inputs": [
        {
          "name": "_address",
          "type": "address"
        }
      ],
      "name": "isExistingAddress",
      "outputs": [
        {
          "name": "result",
          "type": "bool"
        }
      ],
      "payable": false,
      "stateMutability": "view",
      "type": "function"
    },
    {
      "constant": true,
      "inputs": [
        {
          "name": "_address",
          "type": "address"
        }
      ],
      "name": "getFuncSigns",
      "outputs": [
        {
          "name": "",
          "type": "bytes4[]"
        }
      ],
      "payable": false,
      "stateMutability": "view",
      "type": "function"
    },
    {
      "constant": true,
      "inputs": [
        {
          "name": "_f_sig",
          "type": "bytes4"
        }
      ],
      "name": "callDestination",
      "outputs": [
        {
          "name": "_contract",
          "type": "address"
        }
      ],
      "payable": false,
      "stateMutability": "view",
      "type": "function"
    }
  ],
  "bytecode": "0x60806040523480156200001157600080fd5b50604051604080620017b9833981018060405260408110156200003357600080fd5b810190808051906020019092919080519060200190929190505050336000806101000a81548173ffffffffffffffffffffffffffffffffffffffff021916908373ffffffffffffffffffffffffffffffffffffffff160217905550620000a882620000cc640100000000026401000000009004565b50620000c381620000cc640100000000026401000000009004565b505050620003b0565b6000801515620000eb8362000278640100000000026401000000009004565b151514151562000163576040517f08c379a000000000000000000000000000000000000000000000000000000000815260040180806020018281038252601c8152602001807f61646472657373206d757374206e6f74206265206578697374696e670000000081525060200191505060405180910390fd5b600073ffffffffffffffffffffffffffffffffffffffff168273ffffffffffffffffffffffffffffffffffffffff161415151562000209576040517f08c379a000000000000000000000000000000000000000000000000000000000815260040180806020018281038252601c8152602001807f616464696e672061646472657373206d7573742062652076616c69640000000081525060200191505060405180910390fd5b60028290806001815401808255809150509060018203906000526020600020016000909192909190916101000a81548173ffffffffffffffffffffffffffffffffffffffff021916908373ffffffffffffffffffffffffffffffffffffffff1602179055505060019050919050565b600060606200029562000320640100000000026401000000009004565b9050600081511415156200031a5760008090505b815181101562000318578373ffffffffffffffffffffffffffffffffffffffff168282815181101515620002d957fe5b9060200190602002015173ffffffffffffffffffffffffffffffffffffffff1614156200030a576001925062000318565b8080600101915050620002a9565b505b50919050565b60606002805480602002602001604051908101604052809291908181526020018280548015620003a657602002820191906000526020600020905b8160009054906101000a900473ffffffffffffffffffffffffffffffffffffffff1673ffffffffffffffffffffffffffffffffffffffff16815260200190600101908083116200035b575b5050505050905090565b6113f980620003c06000396000f3fe6080604052600436106100af576000357c0100000000000000000000000000000000000000000000000000000000900463ffffffff168063147e608d146101ad578063184cbfed146102165780632daa9888146102bc578063558aa86c146103b957806358d55be6146104425780638ad6b9a014610499578063976449ff14610502578063a49e75e21461061f578063dc2ef17c14610688578063f937ba36146106f4578063fb3735001461078e575b60006100b96107f7565b9050600073ffffffffffffffffffffffffffffffffffffffff168173ffffffffffffffffffffffffffffffffffffffff1614151515610186576040517f08c379a00000000000000000000000000000000000000000000000000000000081526004018080602001828103825260228152602001807f6461746120636f6e74726163742061646472657373206d757374206e6f74203081526020017f783000000000000000000000000000000000000000000000000000000000000081525060400191505060405180910390fd5b593660008237600080368334865af13d59816000823e82600081146101a9578282f35b8282fd5b3480156101b957600080fd5b506101fc600480360360208110156101d057600080fd5b81019080803573ffffffffffffffffffffffffffffffffffffffff169060200190929190505050610821565b604051808215151515815260200191505060405180910390f35b34801561022257600080fd5b506102656004803603602081101561023957600080fd5b81019080803573ffffffffffffffffffffffffffffffffffffffff1690602001909291905050506109ba565b6040518080602001828103825283818151815260200191508051906020019060200280838360005b838110156102a857808201518184015260208101905061028d565b505050509050019250505060405180910390f35b3480156102c857600080fd5b5061039f600480360360408110156102df57600080fd5b81019080803573ffffffffffffffffffffffffffffffffffffffff1690602001909291908035906020019064010000000081111561031c57600080fd5b82018360208201111561032e57600080fd5b8035906020019184602083028401116401000000008311171561035057600080fd5b919080806020026020016040519081016040528093929190818152602001838360200280828437600081840152601f19601f820116905080830192505050505050509192919290505050610aaf565b604051808215151515815260200191505060405180910390f35b3480156103c557600080fd5b50610428600480360360408110156103dc57600080fd5b81019080803573ffffffffffffffffffffffffffffffffffffffff169060200190929190803573ffffffffffffffffffffffffffffffffffffffff169060200190929190505050610ac6565b604051808215151515815260200191505060405180910390f35b34801561044e57600080fd5b506104576107f7565b604051808273ffffffffffffffffffffffffffffffffffffffff1673ffffffffffffffffffffffffffffffffffffffff16815260200191505060405180910390f35b3480156104a557600080fd5b506104e8600480360360208110156104bc57600080fd5b81019080803573ffffffffffffffffffffffffffffffffffffffff169060200190929190505050610ce6565b604051808215151515815260200191505060405180910390f35b34801561050e57600080fd5b506106056004803603606081101561052557600080fd5b81019080803573ffffffffffffffffffffffffffffffffffffffff169060200190929190803573ffffffffffffffffffffffffffffffffffffffff1690602001909291908035906020019064010000000081111561058257600080fd5b82018360208201111561059457600080fd5b803590602001918460208302840111640100000000831117156105b657600080fd5b919080806020026020016040519081016040528093929190818152602001838360200280828437600081840152601f19601f820116905080830192505050505050509192919290505050610ee9565b604051808215151515815260200191505060405180910390f35b34801561062b57600080fd5b5061066e6004803603602081101561064257600080fd5b81019080803573ffffffffffffffffffffffffffffffffffffffff169060200190929190505050610f0c565b604051808215151515815260200191505060405180910390f35b34801561069457600080fd5b5061069d610f58565b6040518080602001828103825283818151815260200191508051906020019060200280838360005b838110156106e05780820151818401526020810190506106c5565b505050509050019250505060405180910390f35b34801561070057600080fd5b5061074c6004803603602081101561071757600080fd5b8101908080357bffffffffffffffffffffffffffffffffffffffffffffffffffffffff19169060200190929190505050610fe6565b604051808273ffffffffffffffffffffffffffffffffffffffff1673ffffffffffffffffffffffffffffffffffffffff16815260200191505060405180910390f35b34801561079a57600080fd5b506107dd600480360360208110156107b157600080fd5b81019080803573ffffffffffffffffffffffffffffffffffffffff169060200190929190505050611175565b604051808215151515815260200191505060405180910390f35b6000600160009054906101000a900473ffffffffffffffffffffffffffffffffffffffff16905090565b600080151561082f83611175565b15151415156108a6576040517f08c379a000000000000000000000000000000000000000000000000000000000815260040180806020018281038252601c8152602001807f61646472657373206d757374206e6f74206265206578697374696e670000000081525060200191505060405180910390fd5b600073ffffffffffffffffffffffffffffffffffffffff168273ffffffffffffffffffffffffffffffffffffffff161415151561094b576040517f08c379a000000000000000000000000000000000000000000000000000000000815260040180806020018281038252601c8152602001807f616464696e672061646472657373206d7573742062652076616c69640000000081525060200191505060405180910390fd5b60028290806001815401808255809150509060018203906000526020600020016000909192909190916101000a81548173ffffffffffffffffffffffffffffffffffffffff021916908373ffffffffffffffffffffffffffffffffffffffff1602179055505060019050919050565b6060600360008373ffffffffffffffffffffffffffffffffffffffff1673ffffffffffffffffffffffffffffffffffffffff168152602001908152602001600020805480602002602001604051908101604052809291908181526020018280548015610aa357602002820191906000526020600020906000905b82829054906101000a90047c0100000000000000000000000000000000000000000000000000000000027bffffffffffffffffffffffffffffffffffffffffffffffffffffffff191681526020019060040190602082600301049283019260010382029150808411610a345790505b50505050509050919050565b6000610abb8383611206565b506001905092915050565b600060011515610ad584611175565b1515141515610b4c576040517f08c379a000000000000000000000000000000000000000000000000000000000815260040180806020018281038252601f8152602001807f6578697374696e67206164647265737320646f6573206e6f742065786973740081525060200191505060405180910390fd5b600073ffffffffffffffffffffffffffffffffffffffff168273ffffffffffffffffffffffffffffffffffffffff1614151515610bf1576040517f08c379a00000000000000000000000000000000000000000000000000000000081526004018080602001828103825260198152602001807f6e65772061646472657373206d7573742062652076616c69640000000000000081525060200191505060405180910390fd5b60008090505b600280549050811015610cdf57600281815481101515610c1357fe5b9060005260206000200160009054906101000a900473ffffffffffffffffffffffffffffffffffffffff1673ffffffffffffffffffffffffffffffffffffffff168473ffffffffffffffffffffffffffffffffffffffff161415610cd25782600282815481101515610c8157fe5b9060005260206000200160006101000a81548173ffffffffffffffffffffffffffffffffffffffff021916908373ffffffffffffffffffffffffffffffffffffffff16021790555060019150610cdf565b8080600101915050610bf7565b5092915050565b600060011515610cf583611175565b1515141515610d6c576040517f08c379a000000000000000000000000000000000000000000000000000000000815260040180806020018281038252601b8152602001807f72656d6f76696e672061646472657373206d757374206578697374000000000081525060200191505060405180910390fd5b60606000610d78610f58565b915060008090505b8251811015610ee0578281815181101515610d9757fe5b9060200190602002015173ffffffffffffffffffffffffffffffffffffffff168573ffffffffffffffffffffffffffffffffffffffff161415610ed35782610de960018461126690919063ffffffff16565b815181101515610df557fe5b90602001906020020151600282815481101515610e0e57fe5b9060005260206000200160006101000a81548173ffffffffffffffffffffffffffffffffffffffff021916908373ffffffffffffffffffffffffffffffffffffffff1602179055506002610e6c60018461126690919063ffffffff16565b815481101515610e7857fe5b9060005260206000200160006101000a81549073ffffffffffffffffffffffffffffffffffffffff0219169055610eb960018361126690919063ffffffff16565b600281610ec6919061127f565b5060019350505050610ee4565b8080600101915050610d80565b5050505b919050565b6000610ef58484610ac6565b50610f008383611206565b50600190509392505050565b600081600160006101000a81548173ffffffffffffffffffffffffffffffffffffffff021916908373ffffffffffffffffffffffffffffffffffffffff16021790555060019050919050565b60606002805480602002602001604051908101604052809291908181526020018280548015610fdc57602002820191906000526020600020905b8160009054906101000a900473ffffffffffffffffffffffffffffffffffffffff1673ffffffffffffffffffffffffffffffffffffffff1681526020019060010190808311610f92575b5050505050905090565b60006060610ff2610f58565b90506000815114151515611094576040517f08c379a00000000000000000000000000000000000000000000000000000000081526004018080602001828103825260268152602001807f72657175697265206172726179206f66206174206c65617374206f6e6520636f81526020017f6e7472616374000000000000000000000000000000000000000000000000000081525060400191505060405180910390fd5b60008090505b815181101561116e5760606110c583838151811015156110b657fe5b906020019060200201516109ba565b905060008090505b815181101561115f5781818151811015156110e457fe5b906020019060200201517bffffffffffffffffffffffffffffffffffffffffffffffffffffffff1916867bffffffffffffffffffffffffffffffffffffffffffffffffffffffff1916141561115257838381518110151561114157fe5b90602001906020020151945061115f565b80806001019150506110cd565b5050808060010191505061109a565b5050919050565b60006060611181610f58565b9050600081511415156112005760008090505b81518110156111fe578373ffffffffffffffffffffffffffffffffffffffff1682828151811015156111c257fe5b9060200190602002015173ffffffffffffffffffffffffffffffffffffffff1614156111f157600192506111fe565b8080600101915050611194565b505b50919050565b600081600360008573ffffffffffffffffffffffffffffffffffffffff1673ffffffffffffffffffffffffffffffffffffffff168152602001908152602001600020908051906020019061125b9291906112ab565b506001905092915050565b600082821115151561127457fe5b818303905092915050565b8154818355818111156112a6578183600052602060002091820191016112a59190611375565b5b505050565b828054828255906000526020600020906007016008900481019282156113645791602002820160005b8382111561133257835183826101000a81548163ffffffff02191690837c01000000000000000000000000000000000000000000000000000000009004021790555092602001926004016020816003010492830192600103026112d4565b80156113625782816101000a81549063ffffffff0219169055600401602081600301049283019260010302611332565b505b509050611371919061139a565b5090565b61139791905b8082111561139357600081600090555060010161137b565b5090565b90565b6113ca91905b808211156113c657600081816101000a81549063ffffffff0219169055506001016113a0565b5090565b9056fea165627a7a723058200ddc304266f23cb13a52da709481f66069a6b1c8d4a2e1e496c43b0bbc4c92950029",
  "source": "pragma solidity ^0.5.0;\r\n\r\nimport \"./SafeMath.sol\";\r\n/**\r\n * @title Proxy\r\n * @dev Gives the possibility to delegate any call to a foreign implementation.\r\n */\r\ncontract ProxyMulti {\r\n   using SafeMath for uint256;\r\n   //signature of calldata (function - the 4 first bytes)\r\n   address private owner;\r\n   address private dataAddr;\r\n   address[] private ctrtAddresses;\r\n   mapping(address => bytes4[]) functionSignatures;\r\n\r\n   constructor(address _foo, address _bar) public {\r\n      owner = msg.sender;\r\n      addCtrtAddress(_foo);\r\n      addCtrtAddress(_bar);\r\n   }\r\n\r\n   function setDataCtrtAddress(address _dataAddr) public returns (bool _result) {\r\n      dataAddr = _dataAddr;\r\n      _result = true;\r\n   }\r\n\r\n   function getDataCtrtAddress() public view returns (address _result) {\r\n      _result = dataAddr;\r\n   }\r\n\r\n   function addContract(address _address, bytes4[] memory _funcSigns) public returns (bool) {\r\n      // require(addCtrtAddress(_address) == true, \"address must be added successfully\");\r\n      setFuncSigns(_address, _funcSigns);\r\n      return true;\r\n   }\r\n\r\n   function updateContract(address _existing, address _new, bytes4[] memory _funcSigns) public returns (bool) {\r\n      updateCtrtAddress(_existing, _new);\r\n      setFuncSigns(_new, _funcSigns);\r\n      return true;\r\n   }\r\n\r\n   function addCtrtAddress(address _address) public returns (bool result) {\r\n      require(isExistingAddress(_address) == false, \"address must not be existing\");\r\n      require(_address != address(0), \"adding address must be valid\");\r\n      ctrtAddresses.push(_address);\r\n      result = true;\r\n   }\r\n\r\n   function getCtrtAddresses() public view returns (address[] memory _addresses) {\r\n      _addresses = ctrtAddresses;\r\n   }\r\n\r\n   function updateCtrtAddress(address _existing, address _new) public returns (bool result) {\r\n      // address[] memory _addresses = ctrtAddresses;\r\n      require(isExistingAddress(_existing) == true, \"existing address does not exist\"); \r\n      require(_new != address(0), \"new address must be valid\");\r\n      for (uint256 i = 0; i < ctrtAddresses.length; i++) {\r\n         if (_existing == ctrtAddresses[i]) {\r\n            ctrtAddresses[i] = _new;\r\n            result = true;\r\n            break;\r\n         }\r\n      }   \r\n   }\r\n\r\n   function removeCtrtAddress(address _address) public returns (bool result) {\r\n      require(isExistingAddress(_address) == true, \"removing address must exist\");\r\n      address[] memory _addresses;\r\n      uint256 arrayLength;\r\n      _addresses = getCtrtAddresses();\r\n      for (uint256 i = 0; i < _addresses.length; i++) {\r\n            if (_address == _addresses[i]) {\r\n                ctrtAddresses[i] = _addresses[arrayLength.sub(1)];\r\n                delete ctrtAddresses[arrayLength.sub(1)];\r\n                ctrtAddresses.length = arrayLength.sub(1);\r\n                return true;\r\n            }\r\n        }\r\n\r\n   } \r\n\r\n   function isExistingAddress(address _address) public view returns (bool result) {\r\n      address[] memory _addresses = getCtrtAddresses();\r\n      if (_addresses.length != 0) {\r\n         for (uint i = 0; i < _addresses.length; i++) {\r\n            if (_addresses[i] == _address) {\r\n               result = true;\r\n               break;\r\n            }\r\n         }\r\n      }\r\n   }\r\n\r\n   //function to update middleware contract address\r\n   function getFuncSigns(address _address) public view returns(bytes4[] memory) {\r\n      return functionSignatures[_address];\r\n   }\r\n \r\n   \r\n   //function to get \r\n   function setFuncSigns(address _address, bytes4[] memory _funcSigns) private returns(bool) {\r\n      //how to get all function signatures of all functions of the contract from abiString\r\n      //myContract.methods.myMethod([param1[, param2[, ...]]]).encodeABI()\r\n      functionSignatures[_address] = _funcSigns;\r\n      return true;\r\n   }\r\n\r\n   function callDestination(bytes4 _f_sig) public view returns (address _contract) {\r\n      //if sinature of function (4 bytes) of _calldata belongs to Erc20, then set the callAddress to erc20\r\n      address[] memory _addresses = getCtrtAddresses();\r\n      require(_addresses.length != 0, \"require array of at least one contract\");\r\n      for (uint i = 0; i < _addresses.length; i++) {\r\n         bytes4[] memory _f_sigs = getFuncSigns(_addresses[i]);\r\n         for (uint j = 0; j < _f_sigs.length; j++) {\r\n            if (_f_sig == _f_sigs[j]) {\r\n               _contract = _addresses[i];\r\n               break;\r\n            }\r\n         }\r\n      }\r\n   }\r\n\r\n   /**\r\n   * @dev Fallback function allowing to perform a delegatecall to the given implementation.\r\n   * This function will return whatever the implementation call returns\r\n   */\r\n   function () payable external {\r\n      //WHERE TO DECLARE MEMORY VARIABLE\r\n      address _dataAddress = getDataCtrtAddress();\r\n      require(_dataAddress != address(0), \"data contract address must not 0x0\");\r\n      assembly {\r\n         //call value = CALLVALUE\r\n         let ptr_call := msize\r\n         calldatacopy(ptr_call, 0, calldatasize)\r\n         let result := call(gas, _dataAddress, callvalue, ptr_call, calldatasize, 0, 0)\r\n         //get value in this address to see if we get it from mint call function\r\n\r\n         let size := returndatasize\r\n         let ptr_return := msize   //copy to the next to the last item of memory, to assure no overide anything\r\n         returndatacopy(ptr_return, 0, size)\r\n         switch result\r\n         case 0 { revert(ptr_return, size) }\r\n         default { return(ptr_return, size) }\r\n      }      \r\n   }\r\n}\r\n   ",
  "sourcePath": "D:/Projects/research/truffle/relay_dao_avoid/contracts/ProxyMulti.sol",
  "compiler": {
    "name": "solc",
    "version": "0.5.0+commit.1d4f565a.Emscripten.clang"
  },
  "schemaVersion": "3.0.6",
  "updatedAt": "2019-05-13T01:19:33.964Z",
  "devdoc": {
    "details": "Gives the possibility to delegate any call to a foreign implementation.\r",
    "methods": {},
    "title": "Proxy\r"
  },
  "userdoc": {
    "methods": {}
  }
}