{
  "contractName": "UpgradabilityProxy",
  "abi": [
    {
      "inputs": [
        {
          "name": "_proxyLogicAddress",
          "type": "address"
        }
      ],
      "payable": false,
      "stateMutability": "nonpayable",
      "type": "constructor"
    },
    {
      "payable": true,
      "stateMutability": "payable",
      "type": "fallback"
    },
    {
      "anonymous": false,
      "inputs": [
        {
          "indexed": true,
          "name": "implementation",
          "type": "address"
        }
      ],
      "name": "Upgraded",
      "type": "event"
    },
    {
      "constant": true,
      "inputs": [],
      "name": "getContractdAddress",
      "outputs": [
        {
          "name": "_currentDeployedAddress",
          "type": "address"
        }
      ],
      "payable": false,
      "stateMutability": "view",
      "type": "function"
    },
    {
      "constant": false,
      "inputs": [
        {
          "name": "newPosition",
          "type": "address"
        }
      ],
      "name": "_upgradeTo",
      "outputs": [],
      "payable": false,
      "stateMutability": "nonpayable",
      "type": "function"
    }
  ],
  "bytecode": "0x608060405234801561001057600080fd5b506040516020806103ca8339810180604052602081101561003057600080fd5b81019080805190602001909291905050506100598161005f640100000000026401000000009004565b506100c6565b600060405180807f4a757374206120636f6e7374616e7420737472696e6720746f2072657475726e81526020017f206120636f6e7374616e742073746f7261676520706f736974696f6e00000000815250603c019050604051809103902090508181555050565b6102f5806100d56000396000f3fe60806040526004361061004c576000357c0100000000000000000000000000000000000000000000000000000000900463ffffffff16806334140748146100ba578063f934c3b41461010b575b6000610056610162565b9050600073ffffffffffffffffffffffffffffffffffffffff168173ffffffffffffffffffffffffffffffffffffffff161415151561009457600080fd5b5936600082376000803683855af43d59816000823e82600081146100b6578282f35b8282fd5b3480156100c657600080fd5b50610109600480360360208110156100dd57600080fd5b81019080803573ffffffffffffffffffffffffffffffffffffffff1690602001909291905050506101cb565b005b34801561011757600080fd5b50610120610162565b604051808273ffffffffffffffffffffffffffffffffffffffff1673ffffffffffffffffffffffffffffffffffffffff16815260200191505060405180910390f35b60008060405180807f4a757374206120636f6e7374616e7420737472696e6720746f2072657475726e81526020017f206120636f6e7374616e742073746f7261676520706f736974696f6e00000000815250603c01905060405180910390209050805491505090565b60006101d5610162565b90508173ffffffffffffffffffffffffffffffffffffffff168173ffffffffffffffffffffffffffffffffffffffff161415151561021257600080fd5b61021b82610262565b8173ffffffffffffffffffffffffffffffffffffffff167fbc7cd75a20ee27fd9adebab32041f755214dbc6bffa90cc0225b39da2e5c2d3b60405160405180910390a25050565b600060405180807f4a757374206120636f6e7374616e7420737472696e6720746f2072657475726e81526020017f206120636f6e7374616e742073746f7261676520706f736974696f6e00000000815250603c01905060405180910390209050818155505056fea165627a7a7230582070c684154e230dc7ec9f9486ea78075b52ff88deed31d80aff4a5959f7835f2a0029",
  "source": "pragma solidity ^0.5.0;\n\nimport './Proxy.sol';\n\n/**\n * @title UpgradeabilityProxy\n * @dev This contract represents a proxy where the implementation address to which it will delegate can be upgraded\n */\ncontract UpgradabilityProxy is Proxy {\n  /**\n   * @dev This event will be emitted every time the implementation gets upgraded\n   * @param implementation representing the address of the upgraded implementation\n   */\n  event Upgraded(address indexed implementation);\n\n  // Storage position which store the address of the current logic contract\n  bytes32 private constant storagePositionOfContract = keccak256(\"Just a constant string to return a constant storage position\");\n\n  /**\n   * @dev Constructor function\n   */\n  constructor(address _proxyLogicAddress) public {\n    _setContractAddress(_proxyLogicAddress);\n  }\n\n  /** GET ADDRESS OF THE CURRENT IMPLEMENTATION\n   * @dev Tells the address of the current implementation\n   * @return address of the current implementation\n   */\n  function getContractdAddress() public view returns (address _currentDeployedAddress) {\n    bytes32 position = storagePositionOfContract;\n    assembly {\n      _currentDeployedAddress := sload(position)\n    }\n  }\n\n  /**\n   * @dev Sets the address of the current implementation\n   * @param _newContractAddress address representing the new implementation to be set\n   */\n  function _setContractAddress(address _newContractAddress) internal {\n    bytes32 position = storagePositionOfContract;\n    assembly {\n      sstore(position, _newContractAddress)\n    }\n  }\n\n  /**\n   * @dev Upgrades the implementation address\n   * @param newPosition representing the address of the new implementation to be set\n   */\n  function _upgradeTo(address newPosition) public {\n    address currentImplementation = getContractdAddress();\n    require(currentImplementation != newPosition);\n    _setContractAddress(newPosition);\n    emit Upgraded(newPosition);\n  }\n\n  //KEEP IN MIND THERE IS FALLBACK FUNCTION INHERIT FROM PROXY CONTRACT\n}\n",
  "sourcePath": "D:/Projects/research/truffle/proxy_reentrance/contracts/UpgradabilityProxy.sol",
  "compiler": {
    "name": "solc",
    "version": "0.5.0+commit.1d4f565a.Emscripten.clang"
  },
  "schemaVersion": "3.0.6",
  "updatedAt": "2019-05-09T04:53:09.236Z",
  "devdoc": {
    "details": "This contract represents a proxy where the implementation address to which it will delegate can be upgraded",
    "methods": {
      "_upgradeTo(address)": {
        "details": "Upgrades the implementation address",
        "params": {
          "newPosition": "representing the address of the new implementation to be set"
        }
      },
      "constructor": {
        "details": "Constructor function"
      },
      "getContractdAddress()": {
        "details": "Tells the address of the current implementation",
        "return": "address of the current implementation"
      }
    },
    "title": "UpgradeabilityProxy"
  },
  "userdoc": {
    "methods": {
      "getContractdAddress()": {
        "notice": "GET ADDRESS OF THE CURRENT IMPLEMENTATION"
      }
    }
  }
}