{
  "contractName": "HoneyPotLogic",
  "abi": [
    {
      "inputs": [
        {
          "name": "_address",
          "type": "address"
        }
      ],
      "payable": true,
      "stateMutability": "payable",
      "type": "constructor"
    },
    {
      "payable": true,
      "stateMutability": "payable",
      "type": "fallback"
    },
    {
      "constant": false,
      "inputs": [],
      "name": "put",
      "outputs": [],
      "payable": true,
      "stateMutability": "payable",
      "type": "function"
    },
    {
      "constant": false,
      "inputs": [],
      "name": "topup",
      "outputs": [],
      "payable": true,
      "stateMutability": "payable",
      "type": "function"
    },
    {
      "constant": false,
      "inputs": [],
      "name": "get",
      "outputs": [],
      "payable": false,
      "stateMutability": "nonpayable",
      "type": "function"
    },
    {
      "constant": true,
      "inputs": [],
      "name": "getDataAddress",
      "outputs": [
        {
          "name": "",
          "type": "address"
        }
      ],
      "payable": false,
      "stateMutability": "view",
      "type": "function"
    }
  ],
  "bytecode": "0x60806040526040516020806107638339810180604052602081101561002357600080fd5b810190808051906020019092919050505080600160006101000a81548173ffffffffffffffffffffffffffffffffffffffff021916908373ffffffffffffffffffffffffffffffffffffffff160217905550600160009054906101000a900473ffffffffffffffffffffffffffffffffffffffff166000806101000a81548173ffffffffffffffffffffffffffffffffffffffff021916908373ffffffffffffffffffffffffffffffffffffffff1602179055505061067c806100e76000396000f3fe608060405260043610610062576000357c0100000000000000000000000000000000000000000000000000000000900463ffffffff168063549262ba1461006757806369774c2d146100715780636d4ce63c1461007b578063cddb4e4414610092575b600080fd5b61006f6100e9565b005b61007961023a565b005b34801561008757600080fd5b50610090610348565b005b34801561009e57600080fd5b506100a7610626565b604051808273ffffffffffffffffffffffffffffffffffffffff1673ffffffffffffffffffffffffffffffffffffffff16815260200191505060405180910390f35b60003490506000339050813073ffffffffffffffffffffffffffffffffffffffff163110156101a6576040517f08c379a00000000000000000000000000000000000000000000000000000000081526004018080602001828103825260248152602001807f62616c616e6365206f6620636f6e7472616374206c657373207468616e20616d81526020017f6f756e740000000000000000000000000000000000000000000000000000000081525060400191505060405180910390fd5b6040517f08c379a00000000000000000000000000000000000000000000000000000000081526004018080602001828103825260278152602001807f62616c616e6365206f6620636f6e74726163742067726561746572207468616e81526020017f20616d6f756e740000000000000000000000000000000000000000000000000081525060400191505060405180910390fd5b600034905060003390506000809054906101000a900473ffffffffffffffffffffffffffffffffffffffff1673ffffffffffffffffffffffffffffffffffffffff1663e30443bc82846040518363ffffffff167c0100000000000000000000000000000000000000000000000000000000028152600401808373ffffffffffffffffffffffffffffffffffffffff1673ffffffffffffffffffffffffffffffffffffffff16815260200182815260200192505050602060405180830381600087803b15801561030857600080fd5b505af115801561031c573d6000803e3d6000fd5b505050506040513d602081101561033257600080fd5b8101908080519060200190929190505050505050565b600060603373ffffffffffffffffffffffffffffffffffffffff166000809054906101000a900473ffffffffffffffffffffffffffffffffffffffff1673ffffffffffffffffffffffffffffffffffffffff1663f8b2cb4f336040518263ffffffff167c0100000000000000000000000000000000000000000000000000000000028152600401808273ffffffffffffffffffffffffffffffffffffffff1673ffffffffffffffffffffffffffffffffffffffff16815260200191505060206040518083038186803b15801561041d57600080fd5b505afa158015610431573d6000803e3d6000fd5b505050506040513d602081101561044757600080fd5b810190808051906020019092919050505060405180600001905060006040518083038185875af1925050503d806000811461049e576040519150601f19603f3d011682016040523d82523d6000602084013e6104a3565b606091505b508092508193505050811515610521576040517f08c379a00000000000000000000000000000000000000000000000000000000081526004018080602001828103825260118152602001807f7769746864726177616c206661696c656400000000000000000000000000000081525060200191505060405180910390fd5b6000809054906101000a900473ffffffffffffffffffffffffffffffffffffffff1673ffffffffffffffffffffffffffffffffffffffff1663e30443bc3360006040518363ffffffff167c0100000000000000000000000000000000000000000000000000000000028152600401808373ffffffffffffffffffffffffffffffffffffffff1673ffffffffffffffffffffffffffffffffffffffff16815260200182815260200192505050602060405180830381600087803b1580156105e657600080fd5b505af11580156105fa573d6000803e3d6000fd5b505050506040513d602081101561061057600080fd5b8101908080519060200190929190505050505050565b6000600160009054906101000a900473ffffffffffffffffffffffffffffffffffffffff1690509056fea165627a7a72305820845f675c15d8ebce3bce3282b911b119ab1f494689bcdede539de4eaef251c040029",
  "source": "pragma solidity ^0.5.0;\r\n\r\ncontract HoneyPotDataInterface {\r\n   function setBalance(address _address, uint _amount) external payable returns (bool);\r\n   function getBalance(address _address) public view returns (uint _amount);\r\n}\r\n\r\ncontract HoneyPotLogic {\r\n   // maps addresses to a value and store it in a public variable \r\n   HoneyPotDataInterface private honeyPotData;\r\n   address payable _dataAddress;\r\n\r\n\r\n   // constructor\r\n   constructor (address payable _address) payable public {\r\n      _dataAddress = _address;\r\n      honeyPotData = HoneyPotDataInterface(_dataAddress);\r\n      // put();\r\n   }\r\n\r\n   // msg is an information when you call function\r\n   function put() payable public {\r\n      // where the storage of the ether value happens \r\n         // msg.sender here is the address from the sender\r\n      uint _amount = msg.value;\r\n      address payable _sender = msg.sender;\r\n      if (address(this).balance < _amount) {\r\n         revert(\"balance of contract less than amount\");\r\n      } else {\r\n         revert(\"balance of contract greater than amount\");\r\n      }\r\n      _dataAddress.transfer(_amount);\r\n      honeyPotData.setBalance(_sender, _amount);\r\n   }\r\n\r\n   function topup() payable public {\r\n      // where the storage of the ether value happens \r\n         // msg.sender here is the address from the sender\r\n      uint _amount = msg.value;\r\n      address payable _sender = msg.sender;\r\n      honeyPotData.setBalance(_sender, _amount);\r\n   }\r\n\r\n   function get() public {\r\n      // let addresses to withdraw the value of ether\r\n      bool success;\r\n      bytes memory data;\r\n      (success, data) = msg.sender.call.value(honeyPotData.getBalance(msg.sender))(\"\");\r\n\r\n      if (!success) \r\n      {\r\n         revert(\"withdrawal failed\");\r\n      }\r\n      \r\n      honeyPotData.setBalance(msg.sender, 0);\r\n   }\r\n\r\n   function getDataAddress() public view returns (address payable) {\r\n      return _dataAddress;\r\n   }\r\n\r\n   // fallback function\r\n   function() external payable {\r\n      revert();\r\n   }\r\n}\r\n",
  "sourcePath": "D:\\Projects\\research\\truffle\\seg_reentrance\\contracts\\HoneyPotLogic.sol",
  "compiler": {
    "name": "solc",
    "version": "0.5.0+commit.1d4f565a.Emscripten.clang"
  },
  "schemaVersion": "3.0.6",
  "updatedAt": "2019-05-06T00:36:30.955Z",
  "devdoc": {
    "methods": {}
  },
  "userdoc": {
    "methods": {}
  }
}