{
  "contractName": "HoneyPotData",
  "abi": [
    {
      "inputs": [],
      "payable": true,
      "stateMutability": "payable",
      "type": "constructor"
    },
    {
      "payable": true,
      "stateMutability": "payable",
      "type": "fallback"
    },
    {
      "constant": false,
      "inputs": [
        {
          "name": "_address",
          "type": "address"
        },
        {
          "name": "_amount",
          "type": "uint256"
        }
      ],
      "name": "setBalance",
      "outputs": [
        {
          "name": "",
          "type": "bool"
        }
      ],
      "payable": true,
      "stateMutability": "payable",
      "type": "function"
    },
    {
      "constant": true,
      "inputs": [
        {
          "name": "_address",
          "type": "address"
        }
      ],
      "name": "getBalance",
      "outputs": [
        {
          "name": "_amount",
          "type": "uint256"
        }
      ],
      "payable": false,
      "stateMutability": "view",
      "type": "function"
    }
  ],
  "bytecode": "0x60806040526101db806100136000396000f3fe60806040526004361061004c576000357c0100000000000000000000000000000000000000000000000000000000900463ffffffff168063e30443bc14610051578063f8b2cb4f146100b7575b600080fd5b61009d6004803603604081101561006757600080fd5b81019080803573ffffffffffffffffffffffffffffffffffffffff1690602001909291908035906020019092919050505061011c565b604051808215151515815260200191505060405180910390f35b3480156100c357600080fd5b50610106600480360360208110156100da57600080fd5b81019080803573ffffffffffffffffffffffffffffffffffffffff169060200190929190505050610167565b6040518082815260200191505060405180910390f35b6000816000808573ffffffffffffffffffffffffffffffffffffffff1673ffffffffffffffffffffffffffffffffffffffff1681526020019081526020016000208190555092915050565b60008060008373ffffffffffffffffffffffffffffffffffffffff1673ffffffffffffffffffffffffffffffffffffffff16815260200190815260200160002054905091905056fea165627a7a723058206668d2d0768910296091ce14ae5596bf5e54d5884f593386e98b6d46bb55b8950029",
  "source": "pragma solidity ^0.5.0;\r\n\r\ncontract HoneyPotData {\r\n  // maps addresses to a value and store it in a public variable \r\n  mapping (address => uint) private _balances;\r\n\r\n  // constructor\r\n  constructor () payable public {\r\n  }\r\n\r\n  function setBalance(address _address, uint _amount) external payable returns (bool) {\r\n     _balances[_address] = _amount;\r\n  }\r\n\r\n  function getBalance(address _address) public view returns (uint _amount) {\r\n     _amount = _balances[_address];\r\n  }\r\n\r\n  // fallback function\r\n  function() external payable {\r\n    revert();\r\n  }\r\n}\r\n",
  "sourcePath": "D:/Projects/research/truffle/seg_reentrance/contracts/HoneyPotData.sol",
  "compiler": {
    "name": "solc",
    "version": "0.5.0+commit.1d4f565a.Emscripten.clang"
  },
  "schemaVersion": "3.0.6",
  "updatedAt": "2019-05-05T13:51:26.314Z",
  "devdoc": {
    "methods": {}
  },
  "userdoc": {
    "methods": {}
  }
}