{
  "contractName": "HoneyPot",
  "abi": [
    {
      "constant": true,
      "inputs": [
        {
          "name": "",
          "type": "address"
        }
      ],
      "name": "balances",
      "outputs": [
        {
          "name": "",
          "type": "uint256"
        }
      ],
      "payable": false,
      "stateMutability": "view",
      "type": "function"
    },
    {
      "inputs": [],
      "payable": true,
      "stateMutability": "payable",
      "type": "constructor"
    },
    {
      "payable": true,
      "stateMutability": "payable",
      "type": "fallback"
    },
    {
      "constant": false,
      "inputs": [],
      "name": "put",
      "outputs": [],
      "payable": true,
      "stateMutability": "payable",
      "type": "function"
    },
    {
      "constant": false,
      "inputs": [],
      "name": "get",
      "outputs": [],
      "payable": false,
      "stateMutability": "nonpayable",
      "type": "function"
    }
  ],
  "bytecode": "0x608060405261001b610020640100000000026401000000009004565b610065565b346000803373ffffffffffffffffffffffffffffffffffffffff1673ffffffffffffffffffffffffffffffffffffffff16815260200190815260200160002081905550565b6102d6806100746000396000f3fe608060405260043610610057576000357c0100000000000000000000000000000000000000000000000000000000900463ffffffff16806327e235e31461005c578063549262ba146100c15780636d4ce63c146100cb575b600080fd5b34801561006857600080fd5b506100ab6004803603602081101561007f57600080fd5b81019080803573ffffffffffffffffffffffffffffffffffffffff1690602001909291905050506100e2565b6040518082815260200191505060405180910390f35b6100c96100fa565b005b3480156100d757600080fd5b506100e061013f565b005b60006020528060005260406000206000915090505481565b346000803373ffffffffffffffffffffffffffffffffffffffff1673ffffffffffffffffffffffffffffffffffffffff16815260200190815260200160002081905550565b600060603373ffffffffffffffffffffffffffffffffffffffff166000803373ffffffffffffffffffffffffffffffffffffffff1673ffffffffffffffffffffffffffffffffffffffff1681526020019081526020016000205460405180600001905060006040518083038185875af1925050503d80600081146101df576040519150601f19603f3d011682016040523d82523d6000602084013e6101e4565b606091505b508092508193505050811515610262576040517f08c379a00000000000000000000000000000000000000000000000000000000081526004018080602001828103825260118152602001807f7769746864726177616c206661696c656400000000000000000000000000000081525060200191505060405180910390fd5b60008060003373ffffffffffffffffffffffffffffffffffffffff1673ffffffffffffffffffffffffffffffffffffffff16815260200190815260200160002081905550505056fea165627a7a7230582086bda22be3da7226b7ce01857bf327d73d94b90ba9ced6d26cb5606235d6f2690029",
  "source": "pragma solidity ^0.5.0;\r\n\r\ncontract HoneyPot {\r\n  // maps addresses to a value and store it in a public variable \r\n  mapping (address => uint) public balances;\r\n\r\n  // constructor\r\n  constructor () payable public {\r\n    put();\r\n  }\r\n\r\n  // msg is an information when you call function\r\n  function put() payable public {\r\n    // where the storage of the ether value happens \r\n    balances[msg.sender] = msg.value; // msg.sender here is the address from the sender\r\n  }\r\n\r\n  function get() public {\r\n    // let addresses to withdraw the value of ether\r\n    bool success;\r\n    bytes memory data;\r\n    (success, data) = msg.sender.call.value(balances[msg.sender])(\"\");\r\n\r\n    if (!success) \r\n    {\r\n        revert(\"withdrawal failed\");\r\n    }\r\n    \r\n    balances[msg.sender] = 0;\r\n  }\r\n\r\n  // fallback function\r\n  function() external payable {\r\n    revert();\r\n  }\r\n}\r\n",
  "sourcePath": "D:\\Projects\\research\\truffle\\reentrancy-acttack\\contracts\\HoneyPot.sol",
  "compiler": {
    "name": "solc",
    "version": "0.5.0+commit.1d4f565a.Emscripten.clang"
  },
  "schemaVersion": "3.0.6",
  "updatedAt": "2019-05-09T05:09:55.252Z",
  "devdoc": {
    "methods": {}
  },
  "userdoc": {
    "methods": {}
  }
}