{
  "contractName": "HoneyPotLogic",
  "abi": [
    {
      "inputs": [
        {
          "name": "_address",
          "type": "address"
        }
      ],
      "payable": true,
      "stateMutability": "payable",
      "type": "constructor"
    },
    {
      "payable": true,
      "stateMutability": "payable",
      "type": "fallback"
    },
    {
      "constant": false,
      "inputs": [],
      "name": "put",
      "outputs": [],
      "payable": true,
      "stateMutability": "payable",
      "type": "function"
    },
    {
      "constant": false,
      "inputs": [],
      "name": "get",
      "outputs": [],
      "payable": false,
      "stateMutability": "nonpayable",
      "type": "function"
    }
  ],
  "bytecode": "0x60806040526040516020806106208339810180604052602081101561002357600080fd5b8101908080519060200190929190505050806000806101000a81548173ffffffffffffffffffffffffffffffffffffffff021916908373ffffffffffffffffffffffffffffffffffffffff16021790555061008b610091640100000000026401000000009004565b50610193565b6000809054906101000a900473ffffffffffffffffffffffffffffffffffffffff1673ffffffffffffffffffffffffffffffffffffffff1663e30443bc33346040518363ffffffff167c0100000000000000000000000000000000000000000000000000000000028152600401808373ffffffffffffffffffffffffffffffffffffffff1673ffffffffffffffffffffffffffffffffffffffff16815260200182815260200192505050602060405180830381600087803b15801561015557600080fd5b505af1158015610169573d6000803e3d6000fd5b505050506040513d602081101561017f57600080fd5b810190808051906020019092919050505050565b61047e806101a26000396000f3fe60806040526004361061004c576000357c0100000000000000000000000000000000000000000000000000000000900463ffffffff168063549262ba146100515780636d4ce63c1461005b575b600080fd5b610059610072565b005b34801561006757600080fd5b50610070610174565b005b6000809054906101000a900473ffffffffffffffffffffffffffffffffffffffff1673ffffffffffffffffffffffffffffffffffffffff1663e30443bc33346040518363ffffffff167c0100000000000000000000000000000000000000000000000000000000028152600401808373ffffffffffffffffffffffffffffffffffffffff1673ffffffffffffffffffffffffffffffffffffffff16815260200182815260200192505050602060405180830381600087803b15801561013657600080fd5b505af115801561014a573d6000803e3d6000fd5b505050506040513d602081101561016057600080fd5b810190808051906020019092919050505050565b600060603373ffffffffffffffffffffffffffffffffffffffff166000809054906101000a900473ffffffffffffffffffffffffffffffffffffffff1673ffffffffffffffffffffffffffffffffffffffff1663f8b2cb4f336040518263ffffffff167c0100000000000000000000000000000000000000000000000000000000028152600401808273ffffffffffffffffffffffffffffffffffffffff1673ffffffffffffffffffffffffffffffffffffffff16815260200191505060206040518083038186803b15801561024957600080fd5b505afa15801561025d573d6000803e3d6000fd5b505050506040513d602081101561027357600080fd5b810190808051906020019092919050505060405180600001905060006040518083038185875af1925050503d80600081146102ca576040519150601f19603f3d011682016040523d82523d6000602084013e6102cf565b606091505b50809250819350505081151561034d576040517f08c379a00000000000000000000000000000000000000000000000000000000081526004018080602001828103825260118152602001807f7769746864726177616c206661696c656400000000000000000000000000000081525060200191505060405180910390fd5b6000809054906101000a900473ffffffffffffffffffffffffffffffffffffffff1673ffffffffffffffffffffffffffffffffffffffff1663e30443bc3360006040518363ffffffff167c0100000000000000000000000000000000000000000000000000000000028152600401808373ffffffffffffffffffffffffffffffffffffffff1673ffffffffffffffffffffffffffffffffffffffff16815260200182815260200192505050602060405180830381600087803b15801561041257600080fd5b505af1158015610426573d6000803e3d6000fd5b505050506040513d602081101561043c57600080fd5b810190808051906020019092919050505050505056fea165627a7a72305820f5e52eade857ab2bdcf6bfd79b2f713cb7a9be4e22440329b8b7e76a8d7a967d0029",
  "source": "pragma solidity ^0.5.0;\r\n\r\ncontract HoneyPotDataInterface {\r\n   function setBalance(address _address, uint _amount) public payable returns (bool);\r\n   function getBalance(address _address) public view returns (uint _amount);\r\n}\r\n\r\ncontract HoneyPotLogic {\r\n   // maps addresses to a value and store it in a public variable \r\n   HoneyPotDataInterface private honeyPotData;\r\n\r\n\r\n   // constructor\r\n   constructor (address payable _address) payable public {\r\n      honeyPotData = HoneyPotDataInterface(_address);\r\n      put();\r\n   }\r\n\r\n   // msg is an information when you call function\r\n   function put() payable public {\r\n      // where the storage of the ether value happens \r\n         // msg.sender here is the address from the sender\r\n      honeyPotData.setBalance(msg.sender, msg.value);\r\n   }\r\n\r\n   function get() public {\r\n      // let addresses to withdraw the value of ether\r\n      bool success;\r\n      bytes memory data;\r\n      (success, data) = msg.sender.call.value(honeyPotData.getBalance(msg.sender))(\"\");\r\n\r\n      if (!success) \r\n      {\r\n         revert(\"withdrawal failed\");\r\n      }\r\n      \r\n      honeyPotData.setBalance(msg.sender, 0);\r\n   }\r\n\r\n   // fallback function\r\n   function() external payable {\r\n      revert();\r\n   }\r\n}\r\n",
  "sourcePath": "D:\\Projects\\research\\truffle\\reentrancy-acttack\\contracts\\HoneyPotLogic.sol",
  "compiler": {
    "name": "solc",
    "version": "0.5.0+commit.1d4f565a.Emscripten.clang"
  },
  "schemaVersion": "3.0.6",
  "updatedAt": "2019-05-09T05:09:55.255Z",
  "devdoc": {
    "methods": {}
  },
  "userdoc": {
    "methods": {}
  }
}