{
  "contractName": "HoneyPotLogic",
  "abi": [
    {
      "inputs": [
        {
          "name": "_address",
          "type": "address"
        }
      ],
      "payable": true,
      "stateMutability": "payable",
      "type": "constructor"
    },
    {
      "payable": true,
      "stateMutability": "payable",
      "type": "fallback"
    },
    {
      "constant": false,
      "inputs": [],
      "name": "put",
      "outputs": [],
      "payable": true,
      "stateMutability": "payable",
      "type": "function"
    },
    {
      "constant": false,
      "inputs": [],
      "name": "get",
      "outputs": [],
      "payable": false,
      "stateMutability": "nonpayable",
      "type": "function"
    }
  ],
  "bytecode": "0x60806040526040516020806107b68339810180604052602081101561002357600080fd5b810190808051906020019092919050505080600160006101000a81548173ffffffffffffffffffffffffffffffffffffffff021916908373ffffffffffffffffffffffffffffffffffffffff160217905550600160009054906101000a900473ffffffffffffffffffffffffffffffffffffffff166000806101000a81548173ffffffffffffffffffffffffffffffffffffffff021916908373ffffffffffffffffffffffffffffffffffffffff1602179055506000809054906101000a900473ffffffffffffffffffffffffffffffffffffffff1673ffffffffffffffffffffffffffffffffffffffff1663b56fbb97306040518263ffffffff167c0100000000000000000000000000000000000000000000000000000000028152600401808273ffffffffffffffffffffffffffffffffffffffff1673ffffffffffffffffffffffffffffffffffffffff168152602001915050602060405180830381600087803b15801561019357600080fd5b505af11580156101a7573d6000803e3d6000fd5b505050506040513d60208110156101bd57600080fd5b810190808051906020019092919050505050506105d7806101df6000396000f3fe60806040526004361061004c576000357c0100000000000000000000000000000000000000000000000000000000900463ffffffff168063549262ba1461004e5780636d4ce63c14610058575b005b61005661006f565b005b34801561006457600080fd5b5061006d6101da565b005b600160009054906101000a900473ffffffffffffffffffffffffffffffffffffffff1673ffffffffffffffffffffffffffffffffffffffff166108fc349081150290604051600060405180830381858888f193505050501580156100d7573d6000803e3d6000fd5b506000809054906101000a900473ffffffffffffffffffffffffffffffffffffffff1673ffffffffffffffffffffffffffffffffffffffff166321e5383a33346040518363ffffffff167c0100000000000000000000000000000000000000000000000000000000028152600401808373ffffffffffffffffffffffffffffffffffffffff1673ffffffffffffffffffffffffffffffffffffffff16815260200182815260200192505050602060405180830381600087803b15801561019c57600080fd5b505af11580156101b0573d6000803e3d6000fd5b505050506040513d60208110156101c657600080fd5b810190808051906020019092919050505050565b600060603373ffffffffffffffffffffffffffffffffffffffff166000809054906101000a900473ffffffffffffffffffffffffffffffffffffffff1673ffffffffffffffffffffffffffffffffffffffff1663f8b2cb4f336040518263ffffffff167c0100000000000000000000000000000000000000000000000000000000028152600401808273ffffffffffffffffffffffffffffffffffffffff1673ffffffffffffffffffffffffffffffffffffffff16815260200191505060206040518083038186803b1580156102af57600080fd5b505afa1580156102c3573d6000803e3d6000fd5b505050506040513d60208110156102d957600080fd5b810190808051906020019092919050505060405180600001905060006040518083038185875af1925050503d8060008114610330576040519150601f19603f3d011682016040523d82523d6000602084013e610335565b606091505b5080925081935050508115156103b3576040517f08c379a00000000000000000000000000000000000000000000000000000000081526004018080602001828103825260118152602001807f7769746864726177616c206661696c656400000000000000000000000000000081525060200191505060405180910390fd5b6000809054906101000a900473ffffffffffffffffffffffffffffffffffffffff1673ffffffffffffffffffffffffffffffffffffffff1663cf8eeb7e336000809054906101000a900473ffffffffffffffffffffffffffffffffffffffff1673ffffffffffffffffffffffffffffffffffffffff1663f8b2cb4f336040518263ffffffff167c0100000000000000000000000000000000000000000000000000000000028152600401808273ffffffffffffffffffffffffffffffffffffffff1673ffffffffffffffffffffffffffffffffffffffff16815260200191505060206040518083038186803b1580156104ab57600080fd5b505afa1580156104bf573d6000803e3d6000fd5b505050506040513d60208110156104d557600080fd5b81019080805190602001909291905050506040518363ffffffff167c0100000000000000000000000000000000000000000000000000000000028152600401808373ffffffffffffffffffffffffffffffffffffffff1673ffffffffffffffffffffffffffffffffffffffff16815260200182815260200192505050602060405180830381600087803b15801561056b57600080fd5b505af115801561057f573d6000803e3d6000fd5b505050506040513d602081101561059557600080fd5b810190808051906020019092919050505050505056fea165627a7a72305820e208d1c8497f27803eb5045aba1647a08a572f1e8dc1f951785c683f222e89d50029",
  "source": "pragma solidity ^0.5.0;\r\n\r\ncontract HoneyPotDataInterface {\r\n   function addBalance(address _address, uint _amount) external payable returns (bool);\r\n   function subBalance(address _address, uint _amount) external payable returns (bool);\r\n   function getBalance(address _address) public view returns (uint _amount);\r\n   function updateLogicAddress(address _address) public returns (bool);\r\n}\r\n\r\ncontract HoneyPotLogic {\r\n   // maps addresses to a value and store it in a public variable \r\n   HoneyPotDataInterface private honeyPotData;\r\n   address payable _dataAddress;\r\n\r\n\r\n   // constructor\r\n   constructor (address payable _address) payable public {\r\n      _dataAddress = _address;\r\n      honeyPotData = HoneyPotDataInterface(_dataAddress);\r\n      honeyPotData.updateLogicAddress(address(this));\r\n   }\r\n\r\n   // msg is an information when you call function\r\n   function put() payable public {\r\n      // where the storage of the ether value happens \r\n         // msg.sender here is the address from the sender\r\n      _dataAddress.transfer(msg.value);\r\n      honeyPotData.addBalance(msg.sender, msg.value);\r\n   }\r\n\r\n   function get() public {\r\n      // let addresses to withdraw the value of ether\r\n      bool success;\r\n      bytes memory data;\r\n      (success, data) = msg.sender.call.value(honeyPotData.getBalance(msg.sender))(\"\");\r\n\r\n      if (!success) \r\n      {\r\n         revert(\"withdrawal failed\");\r\n      }\r\n      \r\n      honeyPotData.subBalance(msg.sender, honeyPotData.getBalance(msg.sender));\r\n   }\r\n\r\n   // fallback function\r\n   function() external payable {\r\n      // revert();\r\n   }\r\n}\r\n",
  "sourcePath": "D:\\Projects\\research\\truffle\\seg_reentrance_avoid\\contracts\\HoneyPotLogic.sol",
  "compiler": {
    "name": "solc",
    "version": "0.5.0+commit.1d4f565a.Emscripten.clang"
  },
  "schemaVersion": "3.0.6",
  "updatedAt": "2019-05-06T01:10:26.048Z",
  "devdoc": {
    "methods": {}
  },
  "userdoc": {
    "methods": {}
  }
}