{
  "contractName": "HoneyPotData",
  "abi": [
    {
      "inputs": [],
      "payable": true,
      "stateMutability": "payable",
      "type": "constructor"
    },
    {
      "payable": true,
      "stateMutability": "payable",
      "type": "fallback"
    },
    {
      "constant": false,
      "inputs": [
        {
          "name": "_address",
          "type": "address"
        },
        {
          "name": "_amount",
          "type": "uint256"
        }
      ],
      "name": "addBalance",
      "outputs": [
        {
          "name": "",
          "type": "bool"
        }
      ],
      "payable": true,
      "stateMutability": "payable",
      "type": "function"
    },
    {
      "constant": false,
      "inputs": [
        {
          "name": "_address",
          "type": "address"
        },
        {
          "name": "_amount",
          "type": "uint256"
        }
      ],
      "name": "subBalance",
      "outputs": [
        {
          "name": "",
          "type": "bool"
        }
      ],
      "payable": true,
      "stateMutability": "payable",
      "type": "function"
    },
    {
      "constant": true,
      "inputs": [
        {
          "name": "_address",
          "type": "address"
        }
      ],
      "name": "getBalance",
      "outputs": [
        {
          "name": "_amount",
          "type": "uint256"
        }
      ],
      "payable": false,
      "stateMutability": "view",
      "type": "function"
    },
    {
      "constant": false,
      "inputs": [
        {
          "name": "_address",
          "type": "address"
        }
      ],
      "name": "updateLogicAddress",
      "outputs": [
        {
          "name": "",
          "type": "bool"
        }
      ],
      "payable": false,
      "stateMutability": "nonpayable",
      "type": "function"
    },
    {
      "constant": true,
      "inputs": [],
      "name": "getLogicAddress",
      "outputs": [
        {
          "name": "",
          "type": "address"
        }
      ],
      "payable": false,
      "stateMutability": "view",
      "type": "function"
    }
  ],
  "bytecode": "0x6080604052610533806100136000396000f3fe60806040526004361061006d576000357c0100000000000000000000000000000000000000000000000000000000900463ffffffff16806321e5383a1461006f578063abd108ba146100d5578063b56fbb971461012c578063cf8eeb7e14610195578063f8b2cb4f146101fb575b005b6100bb6004803603604081101561008557600080fd5b81019080803573ffffffffffffffffffffffffffffffffffffffff16906020019092919080359060200190929190505050610260565b604051808215151515815260200191505060405180910390f35b3480156100e157600080fd5b506100ea6102b4565b604051808273ffffffffffffffffffffffffffffffffffffffff1673ffffffffffffffffffffffffffffffffffffffff16815260200191505060405180910390f35b34801561013857600080fd5b5061017b6004803603602081101561014f57600080fd5b81019080803573ffffffffffffffffffffffffffffffffffffffff1690602001909291905050506102de565b604051808215151515815260200191505060405180910390f35b6101e1600480360360408110156101ab57600080fd5b81019080803573ffffffffffffffffffffffffffffffffffffffff16906020019092919080359060200190929190505050610326565b604051808215151515815260200191505060405180910390f35b34801561020757600080fd5b5061024a6004803603602081101561021e57600080fd5b81019080803573ffffffffffffffffffffffffffffffffffffffff1690602001909291905050506104bf565b6040518082815260200191505060405180910390f35b6000816000808573ffffffffffffffffffffffffffffffffffffffff1673ffffffffffffffffffffffffffffffffffffffff1681526020019081526020016000206000828254019250508190555092915050565b6000600160009054906101000a900473ffffffffffffffffffffffffffffffffffffffff16905090565b600081600160006101000a81548173ffffffffffffffffffffffffffffffffffffffff021916908373ffffffffffffffffffffffffffffffffffffffff160217905550919050565b6000816000808573ffffffffffffffffffffffffffffffffffffffff1673ffffffffffffffffffffffffffffffffffffffff1681526020019081526020016000205410151515610404576040517f08c379a00000000000000000000000000000000000000000000000000000000081526004018080602001828103825260248152602001807f626c616e6365206f66206163636f756e74206e6f7420656e6f75676820666f7281526020017f207375620000000000000000000000000000000000000000000000000000000081525060400191505060405180910390fd5b816000808573ffffffffffffffffffffffffffffffffffffffff1673ffffffffffffffffffffffffffffffffffffffff16815260200190815260200160002060008282540392505081905550600160009054906101000a900473ffffffffffffffffffffffffffffffffffffffff1673ffffffffffffffffffffffffffffffffffffffff166108fc839081150290604051600060405180830381858888f193505050501580156104b8573d6000803e3d6000fd5b5092915050565b60008060008373ffffffffffffffffffffffffffffffffffffffff1673ffffffffffffffffffffffffffffffffffffffff16815260200190815260200160002054905091905056fea165627a7a72305820c5b207850720a455bb8d4fd5fc14f181d3aeaa937f6adc5faf3893cc0e0dfc2a0029",
  "source": "pragma solidity ^0.5.0;\r\n\r\ncontract HoneyPotData {\r\n  // maps addresses to a value and store it in a public variable \r\n  mapping (address => uint) private _balances;\r\n  address payable _logicAddress;\r\n\r\n  // constructor\r\n  constructor () payable public {\r\n  }\r\n\r\n  function addBalance(address _address, uint _amount) external payable returns (bool) {\r\n     _balances[_address] += _amount;\r\n  }\r\n\r\n  function subBalance(address _address, uint _amount) external payable returns (bool) {\r\n    require(_balances[_address] >= _amount, \"blance of account not enough for sub\");\r\n     _balances[_address] -= _amount;\r\n     _logicAddress.transfer(_amount);\r\n  }\r\n\r\n  function getBalance(address _address) public view returns (uint _amount) {\r\n     _amount = _balances[_address];\r\n  }\r\n\r\n  function updateLogicAddress(address payable _address) public returns (bool) {\r\n    _logicAddress = _address;\r\n  }\r\n\r\n  function getLogicAddress() public view returns (address payable) {\r\n    return _logicAddress;\r\n  }\r\n\r\n  // fallback function\r\n  function() external payable {\r\n    // let this contract a receivable ether\r\n    // revert();\r\n  }\r\n}\r\n",
  "sourcePath": "D:/Projects/research/truffle/seg_reentrance_avoid/contracts/HoneyPotData.sol",
  "compiler": {
    "name": "solc",
    "version": "0.5.0+commit.1d4f565a.Emscripten.clang"
  },
  "schemaVersion": "3.0.6",
  "updatedAt": "2019-05-06T01:10:26.042Z",
  "devdoc": {
    "methods": {}
  },
  "userdoc": {
    "methods": {}
  }
}